{
  "contractName": "EWasteTracking",
  "abi": [
    {
      "inputs": [],
      "stateMutability": "nonpayable",
      "type": "constructor"
    },
    {
      "anonymous": false,
      "inputs": [
        {
          "indexed": true,
          "internalType": "uint256",
          "name": "imeiNumber",
          "type": "uint256"
        },
        {
          "indexed": false,
          "internalType": "string",
          "name": "actionPerformed",
          "type": "string"
        },
        {
          "indexed": false,
          "internalType": "string",
          "name": "sourceEntityType",
          "type": "string"
        },
        {
          "indexed": true,
          "internalType": "address",
          "name": "sourceEntityAddress",
          "type": "address"
        },
        {
          "indexed": false,
          "internalType": "string",
          "name": "targetEntityType",
          "type": "string"
        },
        {
          "indexed": true,
          "internalType": "address",
          "name": "targetEntityAddress",
          "type": "address"
        }
      ],
      "name": "DisposeTransaction",
      "type": "event"
    },
    {
      "anonymous": false,
      "inputs": [
        {
          "indexed": true,
          "internalType": "uint256",
          "name": "imeiNumber",
          "type": "uint256"
        },
        {
          "indexed": false,
          "internalType": "string",
          "name": "actionPerformed",
          "type": "string"
        },
        {
          "indexed": false,
          "internalType": "string",
          "name": "sourceEntityType",
          "type": "string"
        },
        {
          "indexed": true,
          "internalType": "address",
          "name": "sourceEntityAddress",
          "type": "address"
        },
        {
          "indexed": false,
          "internalType": "string",
          "name": "targetEntityType",
          "type": "string"
        },
        {
          "indexed": true,
          "internalType": "address",
          "name": "targetEntityAddress",
          "type": "address"
        }
      ],
      "name": "GiveTransaction",
      "type": "event"
    },
    {
      "anonymous": false,
      "inputs": [
        {
          "indexed": false,
          "internalType": "uint256",
          "name": "imeiNumber",
          "type": "uint256"
        },
        {
          "indexed": false,
          "internalType": "string",
          "name": "phoneName",
          "type": "string"
        },
        {
          "indexed": false,
          "internalType": "string",
          "name": "manufacturer",
          "type": "string"
        },
        {
          "indexed": false,
          "internalType": "uint256",
          "name": "expectedLifecycle",
          "type": "uint256"
        },
        {
          "indexed": false,
          "internalType": "uint256",
          "name": "manufactureDate",
          "type": "uint256"
        },
        {
          "indexed": false,
          "internalType": "bool",
          "name": "isBatteryReplaceable",
          "type": "bool"
        }
      ],
      "name": "PassportCreated",
      "type": "event"
    },
    {
      "anonymous": false,
      "inputs": [
        {
          "indexed": true,
          "internalType": "uint256",
          "name": "imeiNumber",
          "type": "uint256"
        },
        {
          "indexed": false,
          "internalType": "string",
          "name": "actionPerformed",
          "type": "string"
        },
        {
          "indexed": false,
          "internalType": "string",
          "name": "sourceEntityType",
          "type": "string"
        },
        {
          "indexed": true,
          "internalType": "address",
          "name": "sourceEntityAddress",
          "type": "address"
        },
        {
          "indexed": false,
          "internalType": "string",
          "name": "targetEntityType",
          "type": "string"
        },
        {
          "indexed": true,
          "internalType": "address",
          "name": "targetEntityAddress",
          "type": "address"
        }
      ],
      "name": "ReturnTransaction",
      "type": "event"
    },
    {
      "anonymous": false,
      "inputs": [
        {
          "indexed": true,
          "internalType": "bytes32",
          "name": "role",
          "type": "bytes32"
        },
        {
          "indexed": true,
          "internalType": "bytes32",
          "name": "previousAdminRole",
          "type": "bytes32"
        },
        {
          "indexed": true,
          "internalType": "bytes32",
          "name": "newAdminRole",
          "type": "bytes32"
        }
      ],
      "name": "RoleAdminChanged",
      "type": "event"
    },
    {
      "anonymous": false,
      "inputs": [
        {
          "indexed": true,
          "internalType": "bytes32",
          "name": "role",
          "type": "bytes32"
        },
        {
          "indexed": true,
          "internalType": "address",
          "name": "account",
          "type": "address"
        },
        {
          "indexed": true,
          "internalType": "address",
          "name": "sender",
          "type": "address"
        }
      ],
      "name": "RoleGranted",
      "type": "event"
    },
    {
      "anonymous": false,
      "inputs": [
        {
          "indexed": true,
          "internalType": "bytes32",
          "name": "role",
          "type": "bytes32"
        },
        {
          "indexed": true,
          "internalType": "address",
          "name": "account",
          "type": "address"
        },
        {
          "indexed": true,
          "internalType": "address",
          "name": "sender",
          "type": "address"
        }
      ],
      "name": "RoleRevoked",
      "type": "event"
    },
    {
      "anonymous": false,
      "inputs": [
        {
          "indexed": true,
          "internalType": "uint256",
          "name": "imeiNumber",
          "type": "uint256"
        },
        {
          "indexed": false,
          "internalType": "string",
          "name": "actionPerformed",
          "type": "string"
        },
        {
          "indexed": false,
          "internalType": "string",
          "name": "sourceEntityType",
          "type": "string"
        },
        {
          "indexed": true,
          "internalType": "address",
          "name": "sourceEntityAddress",
          "type": "address"
        },
        {
          "indexed": false,
          "internalType": "string",
          "name": "targetEntityType",
          "type": "string"
        },
        {
          "indexed": true,
          "internalType": "address",
          "name": "targetEntityAddress",
          "type": "address"
        }
      ],
      "name": "SellTransaction",
      "type": "event"
    },
    {
      "inputs": [],
      "name": "CONSUMER_ROLE",
      "outputs": [
        {
          "internalType": "bytes32",
          "name": "",
          "type": "bytes32"
        }
      ],
      "stateMutability": "view",
      "type": "function"
    },
    {
      "inputs": [],
      "name": "DEFAULT_ADMIN_ROLE",
      "outputs": [
        {
          "internalType": "bytes32",
          "name": "",
          "type": "bytes32"
        }
      ],
      "stateMutability": "view",
      "type": "function"
    },
    {
      "inputs": [],
      "name": "DISTRIBUTOR_ROLE",
      "outputs": [
        {
          "internalType": "bytes32",
          "name": "",
          "type": "bytes32"
        }
      ],
      "stateMutability": "view",
      "type": "function"
    },
    {
      "inputs": [],
      "name": "ENVIRONMENT_ROLE",
      "outputs": [
        {
          "internalType": "bytes32",
          "name": "",
          "type": "bytes32"
        }
      ],
      "stateMutability": "view",
      "type": "function"
    },
    {
      "inputs": [],
      "name": "GOVERNMENT_ROLE",
      "outputs": [
        {
          "internalType": "bytes32",
          "name": "",
          "type": "bytes32"
        }
      ],
      "stateMutability": "view",
      "type": "function"
    },
    {
      "inputs": [],
      "name": "MANUFACTURER_ROLE",
      "outputs": [
        {
          "internalType": "bytes32",
          "name": "",
          "type": "bytes32"
        }
      ],
      "stateMutability": "view",
      "type": "function"
    },
    {
      "inputs": [],
      "name": "RECYCLER_ROLE",
      "outputs": [
        {
          "internalType": "bytes32",
          "name": "",
          "type": "bytes32"
        }
      ],
      "stateMutability": "view",
      "type": "function"
    },
    {
      "inputs": [],
      "name": "REFURBISHER_ROLE",
      "outputs": [
        {
          "internalType": "bytes32",
          "name": "",
          "type": "bytes32"
        }
      ],
      "stateMutability": "view",
      "type": "function"
    },
    {
      "inputs": [],
      "name": "RETAILER_ROLE",
      "outputs": [
        {
          "internalType": "bytes32",
          "name": "",
          "type": "bytes32"
        }
      ],
      "stateMutability": "view",
      "type": "function"
    },
    {
      "inputs": [
        {
          "internalType": "bytes32",
          "name": "role",
          "type": "bytes32"
        }
      ],
      "name": "getRoleAdmin",
      "outputs": [
        {
          "internalType": "bytes32",
          "name": "",
          "type": "bytes32"
        }
      ],
      "stateMutability": "view",
      "type": "function"
    },
    {
      "inputs": [
        {
          "internalType": "bytes32",
          "name": "role",
          "type": "bytes32"
        },
        {
          "internalType": "address",
          "name": "account",
          "type": "address"
        }
      ],
      "name": "grantRole",
      "outputs": [],
      "stateMutability": "nonpayable",
      "type": "function"
    },
    {
      "inputs": [
        {
          "internalType": "bytes32",
          "name": "role",
          "type": "bytes32"
        },
        {
          "internalType": "address",
          "name": "account",
          "type": "address"
        }
      ],
      "name": "hasRole",
      "outputs": [
        {
          "internalType": "bool",
          "name": "",
          "type": "bool"
        }
      ],
      "stateMutability": "view",
      "type": "function"
    },
    {
      "inputs": [
        {
          "internalType": "uint256",
          "name": "",
          "type": "uint256"
        }
      ],
      "name": "passports",
      "outputs": [
        {
          "internalType": "string",
          "name": "phoneName",
          "type": "string"
        },
        {
          "internalType": "string",
          "name": "manufacturer",
          "type": "string"
        },
        {
          "internalType": "uint256",
          "name": "imeiNumber",
          "type": "uint256"
        },
        {
          "internalType": "uint256",
          "name": "manufactureDate",
          "type": "uint256"
        },
        {
          "internalType": "uint256",
          "name": "expectedLifecycle",
          "type": "uint256"
        },
        {
          "internalType": "bool",
          "name": "isBatteryReplaceable",
          "type": "bool"
        },
        {
          "components": [
            {
              "internalType": "string",
              "name": "disposalMethod",
              "type": "string"
            },
            {
              "internalType": "string",
              "name": "disposalDate",
              "type": "string"
            },
            {
              "internalType": "string",
              "name": "location",
              "type": "string"
            },
            {
              "internalType": "string",
              "name": "disposedBy",
              "type": "string"
            }
          ],
          "internalType": "struct EWasteTracking.DisposalEvent",
          "name": "disposalEvent",
          "type": "tuple"
        },
        {
          "components": [
            {
              "internalType": "bool",
              "name": "is5GCapable",
              "type": "bool"
            },
            {
              "internalType": "uint256",
              "name": "releaseDate",
              "type": "uint256"
            },
            {
              "internalType": "string",
              "name": "os",
              "type": "string"
            },
            {
              "internalType": "string",
              "name": "chipset",
              "type": "string"
            },
            {
              "internalType": "uint16",
              "name": "phoneMemory",
              "type": "uint16"
            },
            {
              "internalType": "string",
              "name": "batteryType",
              "type": "string"
            },
            {
              "internalType": "string",
              "name": "condition",
              "type": "string"
            },
            {
              "internalType": "uint8",
              "name": "expectedLifecycle",
              "type": "uint8"
            },
            {
              "internalType": "uint256",
              "name": "achievedLifecycle",
              "type": "uint256"
            }
          ],
          "internalType": "struct EWasteTracking.AdditionalDetails",
          "name": "additionalDetails",
          "type": "tuple"
        }
      ],
      "stateMutability": "view",
      "type": "function"
    },
    {
      "inputs": [
        {
          "internalType": "bytes32",
          "name": "role",
          "type": "bytes32"
        },
        {
          "internalType": "address",
          "name": "account",
          "type": "address"
        }
      ],
      "name": "renounceRole",
      "outputs": [],
      "stateMutability": "nonpayable",
      "type": "function"
    },
    {
      "inputs": [
        {
          "internalType": "bytes32",
          "name": "role",
          "type": "bytes32"
        },
        {
          "internalType": "address",
          "name": "account",
          "type": "address"
        }
      ],
      "name": "revokeRole",
      "outputs": [],
      "stateMutability": "nonpayable",
      "type": "function"
    },
    {
      "inputs": [
        {
          "internalType": "bytes4",
          "name": "interfaceId",
          "type": "bytes4"
        }
      ],
      "name": "supportsInterface",
      "outputs": [
        {
          "internalType": "bool",
          "name": "",
          "type": "bool"
        }
      ],
      "stateMutability": "view",
      "type": "function"
    },
    {
      "inputs": [
        {
          "internalType": "uint256",
          "name": "_imeiNumber",
          "type": "uint256"
        },
        {
          "internalType": "string",
          "name": "_phoneName",
          "type": "string"
        },
        {
          "internalType": "string",
          "name": "_manufacturer",
          "type": "string"
        },
        {
          "internalType": "uint256",
          "name": "_expectedLifecycle",
          "type": "uint256"
        },
        {
          "internalType": "uint256",
          "name": "_manufactureDate",
          "type": "uint256"
        },
        {
          "internalType": "bool",
          "name": "_isBatteryReplaceable",
          "type": "bool"
        }
      ],
      "name": "createNewPassport",
      "outputs": [],
      "stateMutability": "nonpayable",
      "type": "function"
    },
    {
      "inputs": [
        {
          "internalType": "uint256",
          "name": "_imeiNumber",
          "type": "uint256"
        },
        {
          "internalType": "bool",
          "name": "_is5GCapable",
          "type": "bool"
        },
        {
          "internalType": "uint256",
          "name": "_releaseDate",
          "type": "uint256"
        },
        {
          "internalType": "string",
          "name": "_os",
          "type": "string"
        },
        {
          "internalType": "string",
          "name": "_chipset",
          "type": "string"
        },
        {
          "internalType": "uint16",
          "name": "_phoneMemory",
          "type": "uint16"
        },
        {
          "internalType": "string",
          "name": "_batteryType",
          "type": "string"
        },
        {
          "internalType": "string",
          "name": "_condition",
          "type": "string"
        },
        {
          "internalType": "uint8",
          "name": "_additionalExpectedLifecycle",
          "type": "uint8"
        },
        {
          "internalType": "uint256",
          "name": "_achievedLifecycle",
          "type": "uint256"
        }
      ],
      "name": "updateAdditionalDetails",
      "outputs": [],
      "stateMutability": "nonpayable",
      "type": "function"
    },
    {
      "inputs": [
        {
          "internalType": "uint256",
          "name": "_imeiNumber",
          "type": "uint256"
        },
        {
          "internalType": "string[]",
          "name": "_componentNames",
          "type": "string[]"
        },
        {
          "internalType": "string[]",
          "name": "_materials",
          "type": "string[]"
        }
      ],
      "name": "addComponentsToPassport",
      "outputs": [],
      "stateMutability": "nonpayable",
      "type": "function"
    },
    {
      "inputs": [
        {
          "internalType": "uint256",
          "name": "_imeiNumber",
          "type": "uint256"
        },
        {
          "internalType": "string",
          "name": "sourceEntityType",
          "type": "string"
        },
        {
          "internalType": "string",
          "name": "targetEntityType",
          "type": "string"
        },
        {
          "internalType": "address",
          "name": "sourceEntityAddress",
          "type": "address"
        },
        {
          "internalType": "address",
          "name": "targetEntityAddress",
          "type": "address"
        }
      ],
      "name": "sellTransaction",
      "outputs": [],
      "stateMutability": "nonpayable",
      "type": "function"
    },
    {
      "inputs": [
        {
          "internalType": "uint256",
          "name": "_imeiNumber",
          "type": "uint256"
        },
        {
          "internalType": "string",
          "name": "sourceEntityType",
          "type": "string"
        },
        {
          "internalType": "string",
          "name": "targetEntityType",
          "type": "string"
        },
        {
          "internalType": "address",
          "name": "sourceEntityAddress",
          "type": "address"
        },
        {
          "internalType": "address",
          "name": "targetEntityAddress",
          "type": "address"
        }
      ],
      "name": "giveTransaction",
      "outputs": [],
      "stateMutability": "nonpayable",
      "type": "function"
    },
    {
      "inputs": [
        {
          "internalType": "uint256",
          "name": "_imeiNumber",
          "type": "uint256"
        },
        {
          "internalType": "string",
          "name": "sourceEntityType",
          "type": "string"
        },
        {
          "internalType": "string",
          "name": "targetEntityType",
          "type": "string"
        },
        {
          "internalType": "address",
          "name": "sourceEntityAddress",
          "type": "address"
        },
        {
          "internalType": "address",
          "name": "targetEntityAddress",
          "type": "address"
        }
      ],
      "name": "returnTransaction",
      "outputs": [],
      "stateMutability": "nonpayable",
      "type": "function"
    },
    {
      "inputs": [
        {
          "internalType": "uint256",
          "name": "_imeiNumber",
          "type": "uint256"
        },
        {
          "internalType": "string",
          "name": "sourceEntityType",
          "type": "string"
        },
        {
          "internalType": "address",
          "name": "sourceEntityAddress",
          "type": "address"
        },
        {
          "internalType": "string",
          "name": "_disposalMethod",
          "type": "string"
        },
        {
          "internalType": "string",
          "name": "_disposalDate",
          "type": "string"
        },
        {
          "internalType": "string",
          "name": "_disposalLocation",
          "type": "string"
        }
      ],
      "name": "disposeTransaction",
      "outputs": [],
      "stateMutability": "nonpayable",
      "type": "function"
    },
    {
      "inputs": [
        {
          "internalType": "uint256",
          "name": "_imeiNumber",
          "type": "uint256"
        }
      ],
      "name": "getLifecycleEventsCount",
      "outputs": [
        {
          "internalType": "uint256",
          "name": "",
          "type": "uint256"
        }
      ],
      "stateMutability": "view",
      "type": "function"
    },
    {
      "inputs": [
        {
          "internalType": "uint256",
          "name": "_imeiNumber",
          "type": "uint256"
        },
        {
          "internalType": "uint256",
          "name": "index",
          "type": "uint256"
        }
      ],
      "name": "getLifecycleEvent",
      "outputs": [
        {
          "internalType": "string",
          "name": "eventDescription",
          "type": "string"
        },
        {
          "internalType": "uint256",
          "name": "timestamp",
          "type": "uint256"
        }
      ],
      "stateMutability": "view",
      "type": "function"
    },
    {
      "inputs": [
        {
          "internalType": "uint256",
          "name": "imeiNumber",
          "type": "uint256"
        }
      ],
      "name": "getDisposalDetails",
      "outputs": [
        {
          "internalType": "string",
          "name": "",
          "type": "string"
        },
        {
          "internalType": "string",
          "name": "",
          "type": "string"
        },
        {
          "internalType": "string",
          "name": "",
          "type": "string"
        },
        {
          "internalType": "string",
          "name": "",
          "type": "string"
        }
      ],
      "stateMutability": "view",
      "type": "function"
    },
    {
      "inputs": [
        {
          "internalType": "uint256",
          "name": "_imeiNumber",
          "type": "uint256"
        }
      ],
      "name": "getPassportByIMEI",
      "outputs": [
        {
          "components": [
            {
              "internalType": "string",
              "name": "phoneName",
              "type": "string"
            },
            {
              "internalType": "string",
              "name": "manufacturer",
              "type": "string"
            },
            {
              "internalType": "uint256",
              "name": "imeiNumber",
              "type": "uint256"
            },
            {
              "internalType": "uint256",
              "name": "manufactureDate",
              "type": "uint256"
            },
            {
              "internalType": "uint256",
              "name": "expectedLifecycle",
              "type": "uint256"
            },
            {
              "internalType": "bool",
              "name": "isBatteryReplaceable",
              "type": "bool"
            },
            {
              "components": [
                {
                  "internalType": "string",
                  "name": "componentName",
                  "type": "string"
                },
                {
                  "internalType": "string",
                  "name": "material",
                  "type": "string"
                }
              ],
              "internalType": "struct EWasteTracking.Component[]",
              "name": "components",
              "type": "tuple[]"
            },
            {
              "components": [
                {
                  "internalType": "string",
                  "name": "eventDescription",
                  "type": "string"
                },
                {
                  "internalType": "uint256",
                  "name": "timestamp",
                  "type": "uint256"
                }
              ],
              "internalType": "struct EWasteTracking.LifecycleEvent[]",
              "name": "lifecycleEvents",
              "type": "tuple[]"
            },
            {
              "components": [
                {
                  "internalType": "string",
                  "name": "disposalMethod",
                  "type": "string"
                },
                {
                  "internalType": "string",
                  "name": "disposalDate",
                  "type": "string"
                },
                {
                  "internalType": "string",
                  "name": "location",
                  "type": "string"
                },
                {
                  "internalType": "string",
                  "name": "disposedBy",
                  "type": "string"
                }
              ],
              "internalType": "struct EWasteTracking.DisposalEvent",
              "name": "disposalEvent",
              "type": "tuple"
            },
            {
              "components": [
                {
                  "internalType": "bool",
                  "name": "is5GCapable",
                  "type": "bool"
                },
                {
                  "internalType": "uint256",
                  "name": "releaseDate",
                  "type": "uint256"
                },
                {
                  "internalType": "string",
                  "name": "os",
                  "type": "string"
                },
                {
                  "internalType": "string",
                  "name": "chipset",
                  "type": "string"
                },
                {
                  "internalType": "uint16",
                  "name": "phoneMemory",
                  "type": "uint16"
                },
                {
                  "internalType": "string",
                  "name": "batteryType",
                  "type": "string"
                },
                {
                  "internalType": "string",
                  "name": "condition",
                  "type": "string"
                },
                {
                  "internalType": "uint8",
                  "name": "expectedLifecycle",
                  "type": "uint8"
                },
                {
                  "internalType": "uint256",
                  "name": "achievedLifecycle",
                  "type": "uint256"
                }
              ],
              "internalType": "struct EWasteTracking.AdditionalDetails",
              "name": "additionalDetails",
              "type": "tuple"
            }
          ],
          "internalType": "struct EWasteTracking.EWastePassport",
          "name": "",
          "type": "tuple"
        }
      ],
      "stateMutability": "view",
      "type": "function"
    }
  ],
  "bytecode": "0x60806040523480156200001157600080fd5b50620000276000801b33620001bd60201b60201c565b620000597feefb95e842a3287179d933b4460be539a1d5af11aa8b325bb45c5c8dc92de4ed33620001bd60201b60201c565b6200008b7ffbd454f36a7e1a388bd6fc3ab10d434aa4578f811acbbcf33afb1c697486313c33620001bd60201b60201c565b620000bd7f2a5f906c256a5d799494fcd066e1f6c077689de1cdb65052a1624de4bace99bf33620001bd60201b60201c565b620000ef7f9d56108290ea0bc9c5c59c3ad357dca9d1b29ed7f3ae1443bef2fa2159bdf5e833620001bd60201b60201c565b620001217f8f463a6918e1869202f6e4cb571a61221f15cce00dcd23d22ccd078658b9159c33620001bd60201b60201c565b620001537f11d2c681bc9c10ed61f9a422c0dbaaddc4054ce58ec726aca73e7e4d31bcd15433620001bd60201b60201c565b620001857f39e9cf582f9259a2b06afce62d388bb753744053c6f5548627bba4ed096826cf33620001bd60201b60201c565b620001b77fd9d062b29c8756d894f301c5167d214c34d627724cd7fc859ab9329c9330cf5133620001bd60201b60201c565b62000336565b620001cf8282620001d360201b60201c565b5050565b620001e58282620002c460201b60201c565b620002c057600160008084815260200190815260200160002060000160008373ffffffffffffffffffffffffffffffffffffffff1673ffffffffffffffffffffffffffffffffffffffff16815260200190815260200160002060006101000a81548160ff021916908315150217905550620002656200032e60201b60201c565b73ffffffffffffffffffffffffffffffffffffffff168173ffffffffffffffffffffffffffffffffffffffff16837f2f8788117e7eff1d82e926ec794901d17c78024a50270940304540a733656f0d60405160405180910390a45b5050565b600080600084815260200190815260200160002060000160008373ffffffffffffffffffffffffffffffffffffffff1673ffffffffffffffffffffffffffffffffffffffff16815260200190815260200160002060009054906101000a900460ff16905092915050565b600033905090565b61520880620003466000396000f3fe608060405234801561001057600080fd5b50600436106101a95760003560e01c8063965288b0116100f9578063c7c212da11610097578063d547741f11610071578063d547741f146104ed578063d864552814610509578063dd8043ba14610525578063f0bd87cc14610541576101a9565b8063c7c212da1461047c578063cb22f5fd1461049a578063cf9b79bd146104d1576101a9565b8063a132e1c0116100d3578063a132e1c014610406578063a217fddf14610422578063b458149214610440578063bf3137781461045e576101a9565b8063965288b0146103995780639701f919146103b75780639cbed582146103e8576101a9565b80632f2ff15d116101665780634ebc6a22116101405780634ebc6a22146102fe57806375e3aac01461031a57806384b06c731461033657806391d1485414610369576101a9565b80632f2ff15d146102a857806336568abe146102c45780634bc02da6146102e0576101a9565b806301ffc9a7146101ae57806305c03bee146101de5780630d6be9eb1461020e5780631326ec051461022a5780632115e7bf1461025a578063248a9ca314610278575b600080fd5b6101c860048036038101906101c39190613788565b61055f565b6040516101d591906137d0565b60405180910390f35b6101f860048036038101906101f39190613821565b6105d9565b604051610205919061385d565b60405180910390f35b610228600480360381019061022391906139ea565b6105fc565b005b610244600480360381019061023f9190613821565b61085f565b6040516102519190613fe2565b60405180910390f35b61026261118d565b60405161026f919061401d565b60405180910390f35b610292600480360381019061028d9190614064565b6111b1565b60405161029f919061401d565b60405180910390f35b6102c260048036038101906102bd91906140ef565b6111d0565b005b6102de60048036038101906102d991906140ef565b6111f1565b005b6102e8611274565b6040516102f5919061401d565b60405180910390f35b6103186004803603810190610313919061412f565b611298565b005b610334600480360381019061032f91906141e2565b6114e1565b005b610350600480360381019061034b9190613821565b61184b565b6040516103609493929190614329565b60405180910390f35b610383600480360381019061037e91906140ef565b611ae2565b60405161039091906137d0565b60405180910390f35b6103a1611b4c565b6040516103ae919061401d565b60405180910390f35b6103d160048036038101906103cc919061438a565b611b70565b6040516103df9291906143ca565b60405180910390f35b6103f0611cc6565b6040516103fd919061401d565b60405180910390f35b610420600480360381019061041b91906144e0565b611cea565b005b61042a611ee4565b604051610437919061401d565b60405180910390f35b610448611eeb565b604051610455919061401d565b60405180910390f35b610466611f0f565b604051610473919061401d565b60405180910390f35b610484611f33565b604051610491919061401d565b60405180910390f35b6104b460048036038101906104af9190613821565b611f57565b6040516104c89897969594939291906146bd565b60405180910390f35b6104eb60048036038101906104e6919061412f565b6125cd565b005b610507600480360381019061050291906140ef565b612879565b005b610523600480360381019061051e91906147af565b61289a565b005b61053f600480360381019061053a919061412f565b612abc565b005b610549612d37565b604051610556919061401d565b60405180910390f35b60007f7965db0b000000000000000000000000000000000000000000000000000000007bffffffffffffffffffffffffffffffffffffffffffffffffffffffff1916827bffffffffffffffffffffffffffffffffffffffffffffffffffffffff191614806105d257506105d182612d5b565b5b9050919050565b600060016000838152602001908152602001600020600701805490509050919050565b6106267feefb95e842a3287179d933b4460be539a1d5af11aa8b325bb45c5c8dc92de4ed33611ae2565b610665576040517f08c379a000000000000000000000000000000000000000000000000000000000815260040161065c9061494a565b60405180910390fd5b856001600088815260200190815260200160002060020154036106bd576040517f08c379a00000000000000000000000000000000000000000000000000000000081526004016106b4906149b6565b60405180910390fd5b6000600160008881526020019081526020016000209050858160000190805190602001906106ec92919061359b565b508481600101908051906020019061070592919061359b565b50868160020181905550828160030181905550838160040181905550818160050160006101000a81548160ff0219169083151502179055506040518060800160405280604051806020016040528060008152508152602001604051806020016040528060008152508152602001604051806020016040528060008152508152602001604051806020016040528060008152508152508160080160008201518160000190805190602001906107ba92919061359b565b5060208201518160010190805190602001906107d792919061359b565b5060408201518160020190805190602001906107f492919061359b565b50606082015181600301908051906020019061081192919061359b565b509050507fa34690f4605e0953a697ccdd414fb9de7b41c1349608853cb11fa7c9330df40f87878787878760405161084e969594939291906149d6565b60405180910390a150505050505050565b610867613621565b600160008381526020019081526020016000206040518061014001604052908160008201805461089690614a74565b80601f01602080910402602001604051908101604052809291908181526020018280546108c290614a74565b801561090f5780601f106108e45761010080835404028352916020019161090f565b820191906000526020600020905b8154815290600101906020018083116108f257829003601f168201915b5050505050815260200160018201805461092890614a74565b80601f016020809104026020016040519081016040528092919081815260200182805461095490614a74565b80156109a15780601f10610976576101008083540402835291602001916109a1565b820191906000526020600020905b81548152906001019060200180831161098457829003601f168201915b505050505081526020016002820154815260200160038201548152602001600482015481526020016005820160009054906101000a900460ff1615151515815260200160068201805480602002602001604051908101604052809291908181526020016000905b82821015610b5e5783829060005260206000209060020201604051806040016040529081600082018054610a3b90614a74565b80601f0160208091040260200160405190810160405280929190818152602001828054610a6790614a74565b8015610ab45780601f10610a8957610100808354040283529160200191610ab4565b820191906000526020600020905b815481529060010190602001808311610a9757829003601f168201915b50505050508152602001600182018054610acd90614a74565b80601f0160208091040260200160405190810160405280929190818152602001828054610af990614a74565b8015610b465780601f10610b1b57610100808354040283529160200191610b46565b820191906000526020600020905b815481529060010190602001808311610b2957829003601f168201915b50505050508152505081526020019060010190610a08565b50505050815260200160078201805480602002602001604051908101604052809291908181526020016000905b82821015610c595783829060005260206000209060020201604051806040016040529081600082018054610bbe90614a74565b80601f0160208091040260200160405190810160405280929190818152602001828054610bea90614a74565b8015610c375780601f10610c0c57610100808354040283529160200191610c37565b820191906000526020600020905b815481529060010190602001808311610c1a57829003601f168201915b5050505050815260200160018201548152505081526020019060010190610b8b565b50505050815260200160088201604051806080016040529081600082018054610c8190614a74565b80601f0160208091040260200160405190810160405280929190818152602001828054610cad90614a74565b8015610cfa5780601f10610ccf57610100808354040283529160200191610cfa565b820191906000526020600020905b815481529060010190602001808311610cdd57829003601f168201915b50505050508152602001600182018054610d1390614a74565b80601f0160208091040260200160405190810160405280929190818152602001828054610d3f90614a74565b8015610d8c5780601f10610d6157610100808354040283529160200191610d8c565b820191906000526020600020905b815481529060010190602001808311610d6f57829003601f168201915b50505050508152602001600282018054610da590614a74565b80601f0160208091040260200160405190810160405280929190818152602001828054610dd190614a74565b8015610e1e5780601f10610df357610100808354040283529160200191610e1e565b820191906000526020600020905b815481529060010190602001808311610e0157829003601f168201915b50505050508152602001600382018054610e3790614a74565b80601f0160208091040260200160405190810160405280929190818152602001828054610e6390614a74565b8015610eb05780601f10610e8557610100808354040283529160200191610eb0565b820191906000526020600020905b815481529060010190602001808311610e9357829003601f168201915b5050505050815250508152602001600c8201604051806101200160405290816000820160009054906101000a900460ff1615151515815260200160018201548152602001600282018054610f0390614a74565b80601f0160208091040260200160405190810160405280929190818152602001828054610f2f90614a74565b8015610f7c5780601f10610f5157610100808354040283529160200191610f7c565b820191906000526020600020905b815481529060010190602001808311610f5f57829003601f168201915b50505050508152602001600382018054610f9590614a74565b80601f0160208091040260200160405190810160405280929190818152602001828054610fc190614a74565b801561100e5780601f10610fe35761010080835404028352916020019161100e565b820191906000526020600020905b815481529060010190602001808311610ff157829003601f168201915b505050505081526020016004820160009054906101000a900461ffff1661ffff1661ffff16815260200160058201805461104790614a74565b80601f016020809104026020016040519081016040528092919081815260200182805461107390614a74565b80156110c05780601f10611095576101008083540402835291602001916110c0565b820191906000526020600020905b8154815290600101906020018083116110a357829003601f168201915b505050505081526020016006820180546110d990614a74565b80601f016020809104026020016040519081016040528092919081815260200182805461110590614a74565b80156111525780601f1061112757610100808354040283529160200191611152565b820191906000526020600020905b81548152906001019060200180831161113557829003601f168201915b505050505081526020016007820160009054906101000a900460ff1660ff1660ff168152602001600882015481525050815250509050919050565b7f2a5f906c256a5d799494fcd066e1f6c077689de1cdb65052a1624de4bace99bf81565b6000806000838152602001908152602001600020600101549050919050565b6111d9826111b1565b6111e281612dc5565b6111ec8383612dd9565b505050565b6111f9612eb9565b73ffffffffffffffffffffffffffffffffffffffff168173ffffffffffffffffffffffffffffffffffffffff1614611266576040517f08c379a000000000000000000000000000000000000000000000000000000000815260040161125d90614b17565b60405180910390fd5b6112708282612ec1565b5050565b7f9d56108290ea0bc9c5c59c3ad357dca9d1b29ed7f3ae1443bef2fa2159bdf5e881565b6112c27f9d56108290ea0bc9c5c59c3ad357dca9d1b29ed7f3ae1443bef2fa2159bdf5e833611ae2565b806112f357506112f27f8f463a6918e1869202f6e4cb571a61221f15cce00dcd23d22ccd078658b9159c33611ae2565b5b611332576040517f08c379a00000000000000000000000000000000000000000000000000000000081526004016113299061494a565b60405180910390fd5b8460016000878152602001908152602001600020600201541461138a576040517f08c379a000000000000000000000000000000000000000000000000000000000815260040161138190614b83565b60405180910390fd5b60006040518060400160405280600681526020017f72657475726e0000000000000000000000000000000000000000000000000000815250905060608582866040516020016113db93929190614c77565b6040516020818303038152906040529050600060405180604001604052808381526020014281525090508373ffffffffffffffffffffffffffffffffffffffff168573ffffffffffffffffffffffffffffffffffffffff16897e050bd9c85aa923acae91e33977ec8df8ff9d0af298ae460248989dda06131a868b8b60405161146693929190614cbe565b60405180910390a46001600089815260200190815260200160002060070181908060018154018082558091505060019003906000526020600020906002020160009091909190915060008201518160000190805190602001906114ca92919061359b565b506020820151816001015550505050505050505050565b61150b7f9d56108290ea0bc9c5c59c3ad357dca9d1b29ed7f3ae1443bef2fa2159bdf5e833611ae2565b8061153c575061153b7f8f463a6918e1869202f6e4cb571a61221f15cce00dcd23d22ccd078658b9159c33611ae2565b5b8061156d575061156c7f11d2c681bc9c10ed61f9a422c0dbaaddc4054ce58ec726aca73e7e4d31bcd15433611ae2565b5b8061159e575061159d7feefb95e842a3287179d933b4460be539a1d5af11aa8b325bb45c5c8dc92de4ed33611ae2565b5b6115dd576040517f08c379a00000000000000000000000000000000000000000000000000000000081526004016115d49061494a565b60405180910390fd5b85600160008881526020019081526020016000206002015414611635576040517f08c379a000000000000000000000000000000000000000000000000000000000815260040161162c90614b83565b60405180910390fd5b60006040518060400160405280600781526020017f646973706f73650000000000000000000000000000000000000000000000000081525090508360016000898152602001908152602001600020600801600001908051906020019061169c92919061359b565b50826001600089815260200190815260200160002060080160010190805190602001906116ca92919061359b565b50816001600089815260200190815260200160002060080160020190805190602001906116f892919061359b565b5061170285612fa2565b60016000898152602001908152602001600020600801600301908051906020019061172e92919061359b565b5060608187604051602001611744929190614d56565b604051602081830303815290604052905060006040518060400160405280838152602001428152509050600160008a815260200190815260200160002060070181908060018154018082558091505060019003906000526020600020906002020160009091909190915060008201518160000190805190602001906117ca92919061359b565b50602082015181600101555050600073ffffffffffffffffffffffffffffffffffffffff168773ffffffffffffffffffffffffffffffffffffffff168a7f34a862961d0d50271a7dcd0502614d8cb8f65342fa4fbb74963ac330905ba7b3868c604051611838929190614dd1565b60405180910390a4505050505050505050565b60608060608060006001600087815260200190815260200160002060080160405180608001604052908160008201805461188490614a74565b80601f01602080910402602001604051908101604052809291908181526020018280546118b090614a74565b80156118fd5780601f106118d2576101008083540402835291602001916118fd565b820191906000526020600020905b8154815290600101906020018083116118e057829003601f168201915b5050505050815260200160018201805461191690614a74565b80601f016020809104026020016040519081016040528092919081815260200182805461194290614a74565b801561198f5780601f106119645761010080835404028352916020019161198f565b820191906000526020600020905b81548152906001019060200180831161197257829003601f168201915b505050505081526020016002820180546119a890614a74565b80601f01602080910402602001604051908101604052809291908181526020018280546119d490614a74565b8015611a215780601f106119f657610100808354040283529160200191611a21565b820191906000526020600020905b815481529060010190602001808311611a0457829003601f168201915b50505050508152602001600382018054611a3a90614a74565b80601f0160208091040260200160405190810160405280929190818152602001828054611a6690614a74565b8015611ab35780601f10611a8857610100808354040283529160200191611ab3565b820191906000526020600020905b815481529060010190602001808311611a9657829003601f168201915b505050505081525050905080600001518160200151826040015183606001519450945094509450509193509193565b600080600084815260200190815260200160002060000160008373ffffffffffffffffffffffffffffffffffffffff1673ffffffffffffffffffffffffffffffffffffffff16815260200190815260200160002060009054906101000a900460ff16905092915050565b7feefb95e842a3287179d933b4460be539a1d5af11aa8b325bb45c5c8dc92de4ed81565b6060600060016000858152602001908152602001600020600701805490508310611bcf576040517f08c379a0000000000000000000000000000000000000000000000000000000008152600401611bc690614e67565b60405180910390fd5b6000600160008681526020019081526020016000206007018481548110611bf957611bf8614e87565b5b9060005260206000209060020201604051806040016040529081600082018054611c2290614a74565b80601f0160208091040260200160405190810160405280929190818152602001828054611c4e90614a74565b8015611c9b5780601f10611c7057610100808354040283529160200191611c9b565b820191906000526020600020905b815481529060010190602001808311611c7e57829003601f168201915b5050505050815260200160018201548152505090508060000151816020015192509250509250929050565b7fd9d062b29c8756d894f301c5167d214c34d627724cd7fc859ab9329c9330cf5181565b611d147feefb95e842a3287179d933b4460be539a1d5af11aa8b325bb45c5c8dc92de4ed33611ae2565b611d53576040517f08c379a0000000000000000000000000000000000000000000000000000000008152600401611d4a9061494a565b60405180910390fd5b82600160008581526020019081526020016000206002015414611dab576040517f08c379a0000000000000000000000000000000000000000000000000000000008152600401611da290614b83565b60405180910390fd5b8051825114611def576040517f08c379a0000000000000000000000000000000000000000000000000000000008152600401611de690614f02565b60405180910390fd5b600060016000858152602001908152602001600020905060005b8351811015611edd5760006040518060400160405280868481518110611e3257611e31614e87565b5b60200260200101518152602001858481518110611e5257611e51614e87565b5b60200260200101518152509050826006018190806001815401808255809150506001900390600052602060002090600202016000909190919091506000820151816000019080519060200190611ea992919061359b565b506020820151816001019080519060200190611ec692919061359b565b505050508080611ed590614f51565b915050611e09565b5050505050565b6000801b81565b7f8f463a6918e1869202f6e4cb571a61221f15cce00dcd23d22ccd078658b9159c81565b7f11d2c681bc9c10ed61f9a422c0dbaaddc4054ce58ec726aca73e7e4d31bcd15481565b7f39e9cf582f9259a2b06afce62d388bb753744053c6f5548627bba4ed096826cf81565b6001602052806000526040600020600091509050806000018054611f7a90614a74565b80601f0160208091040260200160405190810160405280929190818152602001828054611fa690614a74565b8015611ff35780601f10611fc857610100808354040283529160200191611ff3565b820191906000526020600020905b815481529060010190602001808311611fd657829003601f168201915b50505050509080600101805461200890614a74565b80601f016020809104026020016040519081016040528092919081815260200182805461203490614a74565b80156120815780601f1061205657610100808354040283529160200191612081565b820191906000526020600020905b81548152906001019060200180831161206457829003601f168201915b5050505050908060020154908060030154908060040154908060050160009054906101000a900460ff1690806008016040518060800160405290816000820180546120cb90614a74565b80601f01602080910402602001604051908101604052809291908181526020018280546120f790614a74565b80156121445780601f1061211957610100808354040283529160200191612144565b820191906000526020600020905b81548152906001019060200180831161212757829003601f168201915b5050505050815260200160018201805461215d90614a74565b80601f016020809104026020016040519081016040528092919081815260200182805461218990614a74565b80156121d65780601f106121ab576101008083540402835291602001916121d6565b820191906000526020600020905b8154815290600101906020018083116121b957829003601f168201915b505050505081526020016002820180546121ef90614a74565b80601f016020809104026020016040519081016040528092919081815260200182805461221b90614a74565b80156122685780601f1061223d57610100808354040283529160200191612268565b820191906000526020600020905b81548152906001019060200180831161224b57829003601f168201915b5050505050815260200160038201805461228190614a74565b80601f01602080910402602001604051908101604052809291908181526020018280546122ad90614a74565b80156122fa5780601f106122cf576101008083540402835291602001916122fa565b820191906000526020600020905b8154815290600101906020018083116122dd57829003601f168201915b5050505050815250509080600c01604051806101200160405290816000820160009054906101000a900460ff161515151581526020016001820154815260200160028201805461234990614a74565b80601f016020809104026020016040519081016040528092919081815260200182805461237590614a74565b80156123c25780601f10612397576101008083540402835291602001916123c2565b820191906000526020600020905b8154815290600101906020018083116123a557829003601f168201915b505050505081526020016003820180546123db90614a74565b80601f016020809104026020016040519081016040528092919081815260200182805461240790614a74565b80156124545780601f1061242957610100808354040283529160200191612454565b820191906000526020600020905b81548152906001019060200180831161243757829003601f168201915b505050505081526020016004820160009054906101000a900461ffff1661ffff1661ffff16815260200160058201805461248d90614a74565b80601f01602080910402602001604051908101604052809291908181526020018280546124b990614a74565b80156125065780601f106124db57610100808354040283529160200191612506565b820191906000526020600020905b8154815290600101906020018083116124e957829003601f168201915b5050505050815260200160068201805461251f90614a74565b80601f016020809104026020016040519081016040528092919081815260200182805461254b90614a74565b80156125985780601f1061256d57610100808354040283529160200191612598565b820191906000526020600020905b81548152906001019060200180831161257b57829003601f168201915b505050505081526020016007820160009054906101000a900460ff1660ff1660ff168152602001600882015481525050905088565b6125f77feefb95e842a3287179d933b4460be539a1d5af11aa8b325bb45c5c8dc92de4ed33611ae2565b8061262857506126277ffbd454f36a7e1a388bd6fc3ab10d434aa4578f811acbbcf33afb1c697486313c33611ae2565b5b8061265957506126587f2a5f906c256a5d799494fcd066e1f6c077689de1cdb65052a1624de4bace99bf33611ae2565b5b8061268a57506126897f8f463a6918e1869202f6e4cb571a61221f15cce00dcd23d22ccd078658b9159c33611ae2565b5b6126c9576040517f08c379a00000000000000000000000000000000000000000000000000000000081526004016126c09061494a565b60405180910390fd5b84600160008781526020019081526020016000206002015414612721576040517f08c379a000000000000000000000000000000000000000000000000000000000815260040161271890614b83565b60405180910390fd5b60006040518060400160405280600481526020017f73656c6c000000000000000000000000000000000000000000000000000000008152509050606085828660405160200161277293929190614c77565b6040516020818303038152906040529050600060405180604001604052808381526020014281525090508373ffffffffffffffffffffffffffffffffffffffff168573ffffffffffffffffffffffffffffffffffffffff16897f90c7ad2444e328dfa15c163e958270c88be91c59c9b534da07b3fe19de6364fa868b8b6040516127fe93929190614cbe565b60405180910390a460016000898152602001908152602001600020600701819080600181540180825580915050600190039060005260206000209060020201600090919091909150600082015181600001908051906020019061286292919061359b565b506020820151816001015550505050505050505050565b612882826111b1565b61288b81612dc5565b6128958383612ec1565b505050565b6128c47feefb95e842a3287179d933b4460be539a1d5af11aa8b325bb45c5c8dc92de4ed33611ae2565b612903576040517f08c379a00000000000000000000000000000000000000000000000000000000081526004016128fa9061494a565b60405180910390fd5b89600160008c8152602001908152602001600020600201541461295b576040517f08c379a000000000000000000000000000000000000000000000000000000000815260040161295290614b83565b60405180910390fd5b6000600160008c815260200190815260200160002090506040518061012001604052808b151581526020018a81526020018981526020018881526020018761ffff1681526020018681526020018581526020018460ff1681526020018381525081600c0160008201518160000160006101000a81548160ff021916908315150217905550602082015181600101556040820151816002019080519060200190612a0592919061359b565b506060820151816003019080519060200190612a2292919061359b565b5060808201518160040160006101000a81548161ffff021916908361ffff16021790555060a0820151816005019080519060200190612a6292919061359b565b5060c0820151816006019080519060200190612a7f92919061359b565b5060e08201518160070160006101000a81548160ff021916908360ff16021790555061010082015181600801559050505050505050505050505050565b612ae67feefb95e842a3287179d933b4460be539a1d5af11aa8b325bb45c5c8dc92de4ed33611ae2565b80612b175750612b167f9d56108290ea0bc9c5c59c3ad357dca9d1b29ed7f3ae1443bef2fa2159bdf5e833611ae2565b5b80612b485750612b477f8f463a6918e1869202f6e4cb571a61221f15cce00dcd23d22ccd078658b9159c33611ae2565b5b612b87576040517f08c379a0000000000000000000000000000000000000000000000000000000008152600401612b7e9061494a565b60405180910390fd5b84600160008781526020019081526020016000206002015414612bdf576040517f08c379a0000000000000000000000000000000000000000000000000000000008152600401612bd690614b83565b60405180910390fd5b60006040518060400160405280600481526020017f676976650000000000000000000000000000000000000000000000000000000081525090506060858286604051602001612c3093929190614c77565b6040516020818303038152906040529050600060405180604001604052808381526020014281525090508373ffffffffffffffffffffffffffffffffffffffff168573ffffffffffffffffffffffffffffffffffffffff16897f7facdffd2be5d7690150569a26eebb050fbee36000d98d6e0e441584a7ac4404868b8b604051612cbc93929190614cbe565b60405180910390a4600160008981526020019081526020016000206007018190806001815401808255809150506001900390600052602060002090600202016000909190919091506000820151816000019080519060200190612d2092919061359b565b506020820151816001015550505050505050505050565b7ffbd454f36a7e1a388bd6fc3ab10d434aa4578f811acbbcf33afb1c697486313c81565b60007f01ffc9a7000000000000000000000000000000000000000000000000000000007bffffffffffffffffffffffffffffffffffffffffffffffffffffffff1916827bffffffffffffffffffffffffffffffffffffffffffffffffffffffff1916149050919050565b612dd681612dd1612eb9565b6132ad565b50565b612de38282611ae2565b612eb557600160008084815260200190815260200160002060000160008373ffffffffffffffffffffffffffffffffffffffff1673ffffffffffffffffffffffffffffffffffffffff16815260200190815260200160002060006101000a81548160ff021916908315150217905550612e5a612eb9565b73ffffffffffffffffffffffffffffffffffffffff168173ffffffffffffffffffffffffffffffffffffffff16837f2f8788117e7eff1d82e926ec794901d17c78024a50270940304540a733656f0d60405160405180910390a45b5050565b600033905090565b612ecb8282611ae2565b15612f9e57600080600084815260200190815260200160002060000160008373ffffffffffffffffffffffffffffffffffffffff1673ffffffffffffffffffffffffffffffffffffffff16815260200190815260200160002060006101000a81548160ff021916908315150217905550612f43612eb9565b73ffffffffffffffffffffffffffffffffffffffff168173ffffffffffffffffffffffffffffffffffffffff16837ff6391f5c32d9c69d2a47ea670b442974b53935d1edc7fd64eb21e047a839171b60405160405180910390a45b5050565b606060008273ffffffffffffffffffffffffffffffffffffffff1660001b905060006040518060400160405280601081526020017f303132333435363738396162636465660000000000000000000000000000000081525090506000602a67ffffffffffffffff81111561301957613018613893565b5b6040519080825280601f01601f19166020018201604052801561304b5781602001600182028036833780820191505090505b5090507f30000000000000000000000000000000000000000000000000000000000000008160008151811061308357613082614e87565b5b60200101907effffffffffffffffffffffffffffffffffffffffffffffffffffffffffffff1916908160001a9053507f7800000000000000000000000000000000000000000000000000000000000000816001815181106130e7576130e6614e87565b5b60200101907effffffffffffffffffffffffffffffffffffffffffffffffffffffffffffff1916908160001a90535060005b60148110156132a15782600485600c846131339190614f99565b6020811061314457613143614e87565b5b1a60f81b7effffffffffffffffffffffffffffffffffffffffffffffffffffffffffffff1916901c60f81c60ff168151811061318357613182614e87565b5b602001015160f81c60f81b8260028361319c9190614fef565b60026131a89190614f99565b815181106131b9576131b8614e87565b5b60200101907effffffffffffffffffffffffffffffffffffffffffffffffffffffffffffff1916908160001a90535082600f60f81b85600c846131fc9190614f99565b6020811061320d5761320c614e87565b5b1a60f81b1660f81c60ff168151811061322957613228614e87565b5b602001015160f81c60f81b826002836132429190614fef565b600361324e9190614f99565b8151811061325f5761325e614e87565b5b60200101907effffffffffffffffffffffffffffffffffffffffffffffffffffffffffffff1916908160001a905350808061329990614f51565b915050613119565b50809350505050919050565b6132b78282611ae2565b61332e576132c481613332565b6132d28360001c602061335f565b6040516020016132e39291906150e1565b6040516020818303038152906040526040517f08c379a0000000000000000000000000000000000000000000000000000000008152600401613325919061511b565b60405180910390fd5b5050565b60606133588273ffffffffffffffffffffffffffffffffffffffff16601460ff1661335f565b9050919050565b6060600060028360026133729190614fef565b61337c9190614f99565b67ffffffffffffffff81111561339557613394613893565b5b6040519080825280601f01601f1916602001820160405280156133c75781602001600182028036833780820191505090505b5090507f3000000000000000000000000000000000000000000000000000000000000000816000815181106133ff576133fe614e87565b5b60200101907effffffffffffffffffffffffffffffffffffffffffffffffffffffffffffff1916908160001a9053507f78000000000000000000000000000000000000000000000000000000000000008160018151811061346357613462614e87565b5b60200101907effffffffffffffffffffffffffffffffffffffffffffffffffffffffffffff1916908160001a905350600060018460026134a39190614fef565b6134ad9190614f99565b90505b600181111561354d577f3031323334353637383961626364656600000000000000000000000000000000600f8616601081106134ef576134ee614e87565b5b1a60f81b82828151811061350657613505614e87565b5b60200101907effffffffffffffffffffffffffffffffffffffffffffffffffffffffffffff1916908160001a905350600485901c9450806135469061513d565b90506134b0565b5060008414613591576040517f08c379a0000000000000000000000000000000000000000000000000000000008152600401613588906151b2565b60405180910390fd5b8091505092915050565b8280546135a790614a74565b90600052602060002090601f0160209004810192826135c95760008555613610565b82601f106135e257805160ff1916838001178555613610565b82800160010185558215613610579182015b8281111561360f5782518255916020019190600101906135f4565b5b50905061361d9190613682565b5090565b6040518061014001604052806060815260200160608152602001600081526020016000815260200160008152602001600015158152602001606081526020016060815260200161366f61369f565b815260200161367c6136c7565b81525090565b5b8082111561369b576000816000905550600101613683565b5090565b6040518060800160405280606081526020016060815260200160608152602001606081525090565b604051806101200160405280600015158152602001600081526020016060815260200160608152602001600061ffff1681526020016060815260200160608152602001600060ff168152602001600081525090565b6000604051905090565b600080fd5b600080fd5b60007fffffffff0000000000000000000000000000000000000000000000000000000082169050919050565b61376581613730565b811461377057600080fd5b50565b6000813590506137828161375c565b92915050565b60006020828403121561379e5761379d613726565b5b60006137ac84828501613773565b91505092915050565b60008115159050919050565b6137ca816137b5565b82525050565b60006020820190506137e560008301846137c1565b92915050565b6000819050919050565b6137fe816137eb565b811461380957600080fd5b50565b60008135905061381b816137f5565b92915050565b60006020828403121561383757613836613726565b5b60006138458482850161380c565b91505092915050565b613857816137eb565b82525050565b6000602082019050613872600083018461384e565b92915050565b600080fd5b600080fd5b6000601f19601f8301169050919050565b7f4e487b7100000000000000000000000000000000000000000000000000000000600052604160045260246000fd5b6138cb82613882565b810181811067ffffffffffffffff821117156138ea576138e9613893565b5b80604052505050565b60006138fd61371c565b905061390982826138c2565b919050565b600067ffffffffffffffff82111561392957613928613893565b5b61393282613882565b9050602081019050919050565b82818337600083830152505050565b600061396161395c8461390e565b6138f3565b90508281526020810184848401111561397d5761397c61387d565b5b61398884828561393f565b509392505050565b600082601f8301126139a5576139a4613878565b5b81356139b584826020860161394e565b91505092915050565b6139c7816137b5565b81146139d257600080fd5b50565b6000813590506139e4816139be565b92915050565b60008060008060008060c08789031215613a0757613a06613726565b5b6000613a1589828a0161380c565b965050602087013567ffffffffffffffff811115613a3657613a3561372b565b5b613a4289828a01613990565b955050604087013567ffffffffffffffff811115613a6357613a6261372b565b5b613a6f89828a01613990565b9450506060613a8089828a0161380c565b9350506080613a9189828a0161380c565b92505060a0613aa289828a016139d5565b9150509295509295509295565b600081519050919050565b600082825260208201905092915050565b60005b83811015613ae9578082015181840152602081019050613ace565b83811115613af8576000848401525b50505050565b6000613b0982613aaf565b613b138185613aba565b9350613b23818560208601613acb565b613b2c81613882565b840191505092915050565b613b40816137eb565b82525050565b613b4f816137b5565b82525050565b600081519050919050565b600082825260208201905092915050565b6000819050602082019050919050565b60006040830160008301518482036000860152613b9e8282613afe565b91505060208301518482036020860152613bb88282613afe565b9150508091505092915050565b6000613bd18383613b81565b905092915050565b6000602082019050919050565b6000613bf182613b55565b613bfb8185613b60565b935083602082028501613c0d85613b71565b8060005b85811015613c495784840389528151613c2a8582613bc5565b9450613c3583613bd9565b925060208a01995050600181019050613c11565b50829750879550505050505092915050565b600081519050919050565b600082825260208201905092915050565b6000819050602082019050919050565b60006040830160008301518482036000860152613ca48282613afe565b9150506020830151613cb96020860182613b37565b508091505092915050565b6000613cd08383613c87565b905092915050565b6000602082019050919050565b6000613cf082613c5b565b613cfa8185613c66565b935083602082028501613d0c85613c77565b8060005b85811015613d485784840389528151613d298582613cc4565b9450613d3483613cd8565b925060208a01995050600181019050613d10565b50829750879550505050505092915050565b60006080830160008301518482036000860152613d778282613afe565b91505060208301518482036020860152613d918282613afe565b91505060408301518482036040860152613dab8282613afe565b91505060608301518482036060860152613dc58282613afe565b9150508091505092915050565b600061ffff82169050919050565b613de981613dd2565b82525050565b600060ff82169050919050565b613e0581613def565b82525050565b600061012083016000830151613e246000860182613b46565b506020830151613e376020860182613b37565b5060408301518482036040860152613e4f8282613afe565b91505060608301518482036060860152613e698282613afe565b9150506080830151613e7e6080860182613de0565b5060a083015184820360a0860152613e968282613afe565b91505060c083015184820360c0860152613eb08282613afe565b91505060e0830151613ec560e0860182613dfc565b50610100830151613eda610100860182613b37565b508091505092915050565b6000610140830160008301518482036000860152613f038282613afe565b91505060208301518482036020860152613f1d8282613afe565b9150506040830151613f326040860182613b37565b506060830151613f456060860182613b37565b506080830151613f586080860182613b37565b5060a0830151613f6b60a0860182613b46565b5060c083015184820360c0860152613f838282613be6565b91505060e083015184820360e0860152613f9d8282613ce5565b915050610100830151848203610100860152613fb98282613d5a565b915050610120830151848203610120860152613fd58282613e0b565b9150508091505092915050565b60006020820190508181036000830152613ffc8184613ee5565b905092915050565b6000819050919050565b61401781614004565b82525050565b6000602082019050614032600083018461400e565b92915050565b61404181614004565b811461404c57600080fd5b50565b60008135905061405e81614038565b92915050565b60006020828403121561407a57614079613726565b5b60006140888482850161404f565b91505092915050565b600073ffffffffffffffffffffffffffffffffffffffff82169050919050565b60006140bc82614091565b9050919050565b6140cc816140b1565b81146140d757600080fd5b50565b6000813590506140e9816140c3565b92915050565b6000806040838503121561410657614105613726565b5b60006141148582860161404f565b9250506020614125858286016140da565b9150509250929050565b600080600080600060a0868803121561414b5761414a613726565b5b60006141598882890161380c565b955050602086013567ffffffffffffffff81111561417a5761417961372b565b5b61418688828901613990565b945050604086013567ffffffffffffffff8111156141a7576141a661372b565b5b6141b388828901613990565b93505060606141c4888289016140da565b92505060806141d5888289016140da565b9150509295509295909350565b60008060008060008060c087890312156141ff576141fe613726565b5b600061420d89828a0161380c565b965050602087013567ffffffffffffffff81111561422e5761422d61372b565b5b61423a89828a01613990565b955050604061424b89828a016140da565b945050606087013567ffffffffffffffff81111561426c5761426b61372b565b5b61427889828a01613990565b935050608087013567ffffffffffffffff8111156142995761429861372b565b5b6142a589828a01613990565b92505060a087013567ffffffffffffffff8111156142c6576142c561372b565b5b6142d289828a01613990565b9150509295509295509295565b600082825260208201905092915050565b60006142fb82613aaf565b61430581856142df565b9350614315818560208601613acb565b61431e81613882565b840191505092915050565b6000608082019050818103600083015261434381876142f0565b9050818103602083015261435781866142f0565b9050818103604083015261436b81856142f0565b9050818103606083015261437f81846142f0565b905095945050505050565b600080604083850312156143a1576143a0613726565b5b60006143af8582860161380c565b92505060206143c08582860161380c565b9150509250929050565b600060408201905081810360008301526143e481856142f0565b90506143f3602083018461384e565b9392505050565b600067ffffffffffffffff82111561441557614414613893565b5b602082029050602081019050919050565b600080fd5b600061443e614439846143fa565b6138f3565b9050808382526020820190506020840283018581111561446157614460614426565b5b835b818110156144a857803567ffffffffffffffff81111561448657614485613878565b5b8086016144938982613990565b85526020850194505050602081019050614463565b5050509392505050565b600082601f8301126144c7576144c6613878565b5b81356144d784826020860161442b565b91505092915050565b6000806000606084860312156144f9576144f8613726565b5b60006145078682870161380c565b935050602084013567ffffffffffffffff8111156145285761452761372b565b5b614534868287016144b2565b925050604084013567ffffffffffffffff8111156145555761455461372b565b5b614561868287016144b2565b9150509250925092565b600060808301600083015184820360008601526145888282613afe565b915050602083015184820360208601526145a28282613afe565b915050604083015184820360408601526145bc8282613afe565b915050606083015184820360608601526145d68282613afe565b9150508091505092915050565b6000610120830160008301516145fc6000860182613b46565b50602083015161460f6020860182613b37565b50604083015184820360408601526146278282613afe565b915050606083015184820360608601526146418282613afe565b91505060808301516146566080860182613de0565b5060a083015184820360a086015261466e8282613afe565b91505060c083015184820360c08601526146888282613afe565b91505060e083015161469d60e0860182613dfc565b506101008301516146b2610100860182613b37565b508091505092915050565b60006101008201905081810360008301526146d8818b6142f0565b905081810360208301526146ec818a6142f0565b90506146fb604083018961384e565b614708606083018861384e565b614715608083018761384e565b61472260a08301866137c1565b81810360c0830152614734818561456b565b905081810360e083015261474881846145e3565b90509998505050505050505050565b61476081613dd2565b811461476b57600080fd5b50565b60008135905061477d81614757565b92915050565b61478c81613def565b811461479757600080fd5b50565b6000813590506147a981614783565b92915050565b6000806000806000806000806000806101408b8d0312156147d3576147d2613726565b5b60006147e18d828e0161380c565b9a505060206147f28d828e016139d5565b99505060406148038d828e0161380c565b98505060608b013567ffffffffffffffff8111156148245761482361372b565b5b6148308d828e01613990565b97505060808b013567ffffffffffffffff8111156148515761485061372b565b5b61485d8d828e01613990565b96505060a061486e8d828e0161476e565b95505060c08b013567ffffffffffffffff81111561488f5761488e61372b565b5b61489b8d828e01613990565b94505060e08b013567ffffffffffffffff8111156148bc576148bb61372b565b5b6148c88d828e01613990565b9350506101006148da8d828e0161479a565b9250506101206148ec8d828e0161380c565b9150509295989b9194979a5092959850565b7f556e617574686f72697a65642100000000000000000000000000000000000000600082015250565b6000614934600d836142df565b915061493f826148fe565b602082019050919050565b6000602082019050818103600083015261496381614927565b9050919050565b7f494d454920616c72656164792065786973747321000000000000000000000000600082015250565b60006149a06014836142df565b91506149ab8261496a565b602082019050919050565b600060208201905081810360008301526149cf81614993565b9050919050565b600060c0820190506149eb600083018961384e565b81810360208301526149fd81886142f0565b90508181036040830152614a1181876142f0565b9050614a20606083018661384e565b614a2d608083018561384e565b614a3a60a08301846137c1565b979650505050505050565b7f4e487b7100000000000000000000000000000000000000000000000000000000600052602260045260246000fd5b60006002820490506001821680614a8c57607f821691505b602082108103614a9f57614a9e614a45565b5b50919050565b7f416363657373436f6e74726f6c3a2063616e206f6e6c792072656e6f756e636560008201527f20726f6c657320666f722073656c660000000000000000000000000000000000602082015250565b6000614b01602f836142df565b9150614b0c82614aa5565b604082019050919050565b60006020820190508181036000830152614b3081614af4565b9050919050565b7f494d454920646f6573206e6f7420657869737421000000000000000000000000600082015250565b6000614b6d6014836142df565b9150614b7882614b37565b602082019050919050565b60006020820190508181036000830152614b9c81614b60565b9050919050565b600081905092915050565b6000614bb982613aaf565b614bc38185614ba3565b9350614bd3818560208601613acb565b80840191505092915050565b7f2000000000000000000000000000000000000000000000000000000000000000600082015250565b6000614c15600183614ba3565b9150614c2082614bdf565b600182019050919050565b7f20746f2000000000000000000000000000000000000000000000000000000000600082015250565b6000614c61600483614ba3565b9150614c6c82614c2b565b600482019050919050565b6000614c838286614bae565b9150614c8e82614c08565b9150614c9a8285614bae565b9150614ca582614c54565b9150614cb18284614bae565b9150819050949350505050565b60006060820190508181036000830152614cd881866142f0565b90508181036020830152614cec81856142f0565b90508181036040830152614d0081846142f0565b9050949350505050565b7f2062792000000000000000000000000000000000000000000000000000000000600082015250565b6000614d40600483614ba3565b9150614d4b82614d0a565b600482019050919050565b6000614d628285614bae565b9150614d6d82614d33565b9150614d798284614bae565b91508190509392505050565b7f646973706f73616c2063656e7465720000000000000000000000000000000000600082015250565b6000614dbb600f836142df565b9150614dc682614d85565b602082019050919050565b60006060820190508181036000830152614deb81856142f0565b90508181036020830152614dff81846142f0565b90508181036040830152614e1281614dae565b90509392505050565b7f496e646578206f7574206f6620626f756e647300000000000000000000000000600082015250565b6000614e516013836142df565b9150614e5c82614e1b565b602082019050919050565b60006020820190508181036000830152614e8081614e44565b9050919050565b7f4e487b7100000000000000000000000000000000000000000000000000000000600052603260045260246000fd5b7f417272617973206c656e677468206d69736d6174636800000000000000000000600082015250565b6000614eec6016836142df565b9150614ef782614eb6565b602082019050919050565b60006020820190508181036000830152614f1b81614edf565b9050919050565b7f4e487b7100000000000000000000000000000000000000000000000000000000600052601160045260246000fd5b6000614f5c826137eb565b91507fffffffffffffffffffffffffffffffffffffffffffffffffffffffffffffffff8203614f8e57614f8d614f22565b5b600182019050919050565b6000614fa4826137eb565b9150614faf836137eb565b9250827fffffffffffffffffffffffffffffffffffffffffffffffffffffffffffffffff03821115614fe457614fe3614f22565b5b828201905092915050565b6000614ffa826137eb565b9150615005836137eb565b9250817fffffffffffffffffffffffffffffffffffffffffffffffffffffffffffffffff048311821515161561503e5761503d614f22565b5b828202905092915050565b7f416363657373436f6e74726f6c3a206163636f756e7420000000000000000000600082015250565b600061507f601783614ba3565b915061508a82615049565b601782019050919050565b7f206973206d697373696e6720726f6c6520000000000000000000000000000000600082015250565b60006150cb601183614ba3565b91506150d682615095565b601182019050919050565b60006150ec82615072565b91506150f88285614bae565b9150615103826150be565b915061510f8284614bae565b91508190509392505050565b6000602082019050818103600083015261513581846142f0565b905092915050565b6000615148826137eb565b91506000820361515b5761515a614f22565b5b600182039050919050565b7f537472696e67733a20686578206c656e67746820696e73756666696369656e74600082015250565b600061519c6020836142df565b91506151a782615166565b602082019050919050565b600060208201905081810360008301526151cb8161518f565b905091905056fea2646970667358221220d53c3ef57f8d8c79e47546268ccdcd389a5016c9a656f719a037fa48609a5a2064736f6c634300080d0033",
  "immutableReferences": {},
  "source": "// SPDX-License-Identifier: MIT\r\npragma solidity ^0.8.10;\r\n\r\nimport \"@openzeppelin/contracts/access/AccessControl.sol\";\r\n\r\ncontract EWasteTracking is AccessControl {\r\n\r\n    // Define roles\r\n    bytes32 public constant MANUFACTURER_ROLE = keccak256(\"MANUFACTURER_ROLE\");\r\n    bytes32 public constant DISTRIBUTOR_ROLE = keccak256(\"DISTRIBUTOR_ROLE\");\r\n    bytes32 public constant RETAILER_ROLE = keccak256(\"RETAILER_ROLE\");\r\n    bytes32 public constant CONSUMER_ROLE = keccak256(\"CONSUMER_ROLE\");\r\n    bytes32 public constant REFURBISHER_ROLE = keccak256(\"REFURBISHER_ROLE\");\r\n    bytes32 public constant RECYCLER_ROLE = keccak256(\"RECYCLER_ROLE\");\r\n    bytes32 public constant ENVIRONMENT_ROLE = keccak256(\"ENVIRONMENT_ROLE\");\r\n    bytes32 public constant GOVERNMENT_ROLE = keccak256(\"GOVERNMENT_ROLE\");\r\n\r\n    struct Component {\r\n        string componentName;\r\n        string material;\r\n    }\r\n\r\n    struct LifecycleEvent {\r\n        string eventDescription;\r\n        uint256 timestamp;\r\n    }\r\n\r\n    struct DisposalEvent {\r\n        string disposalMethod;\r\n        string disposalDate;\r\n        string location;\r\n        string disposedBy;\r\n    }\r\n\r\n    mapping(uint256 => EWastePassport) public passports;\r\n\r\n    constructor() {\r\n        _setupRole(AccessControl.DEFAULT_ADMIN_ROLE, msg.sender);  // Set deployer as the default admin\r\n        _setupRole(MANUFACTURER_ROLE, msg.sender);\r\n        _setupRole(DISTRIBUTOR_ROLE, msg.sender);\r\n        _setupRole(RETAILER_ROLE, msg.sender);\r\n        _setupRole( CONSUMER_ROLE, msg.sender);\r\n        _setupRole( REFURBISHER_ROLE, msg.sender);\r\n        _setupRole( RECYCLER_ROLE, msg.sender);\r\n        _setupRole( ENVIRONMENT_ROLE, msg.sender);\r\n        _setupRole( GOVERNMENT_ROLE, msg.sender);\r\n\r\n    }\r\n\r\n    struct EWastePassport {\r\n        string phoneName;\r\n        string manufacturer;\r\n        uint256 imeiNumber;\r\n        uint256 manufactureDate;\r\n        uint256 expectedLifecycle;\r\n        bool isBatteryReplaceable;\r\n        Component[] components;\r\n        LifecycleEvent[] lifecycleEvents;\r\n        DisposalEvent disposalEvent;\r\n        AdditionalDetails additionalDetails;\r\n    }\r\n\r\n    \r\n    struct AdditionalDetails {\r\n        bool is5GCapable;                // 5G capability\r\n        uint256 releaseDate;             // Convert Release Date from string to uint256 (timestamp format)\r\n        string os;                       // iOS\r\n        string chipset;                  // Apple A14 Bionic\r\n        uint16 phoneMemory;                  // 128 (in GB, using uint16 should suffice)\r\n        string batteryType;              // Lithium-ion\r\n        string condition;                // Very Good\r\n        uint8 expectedLifecycle;         // 5 (in years, uint8 should be enough)\r\n        uint256 achievedLifecycle;       // 0.1 (convert this into a percentage or fraction for accuracy, uint256)\r\n    }\r\n\r\n    event PassportCreated(\r\n        uint256 imeiNumber,\r\n        string phoneName,\r\n        string manufacturer,\r\n        uint256 expectedLifecycle,\r\n        uint256 manufactureDate,\r\n        bool isBatteryReplaceable\r\n    );\r\n\r\n    function createNewPassport(\r\n        uint256 _imeiNumber,\r\n        string memory _phoneName,\r\n        string memory _manufacturer,\r\n        uint256 _expectedLifecycle,\r\n        uint256 _manufactureDate,\r\n        bool _isBatteryReplaceable\r\n    ) public {\r\n        require(hasRole(MANUFACTURER_ROLE, msg.sender), \"Unauthorized!\");\r\n        require(passports[_imeiNumber].imeiNumber != _imeiNumber, \"IMEI already exists!\");\r\n\r\n        EWastePassport storage newPassport = passports[_imeiNumber];\r\n        \r\n        newPassport.phoneName = _phoneName;\r\n        newPassport.manufacturer = _manufacturer;\r\n        newPassport.imeiNumber = _imeiNumber;\r\n        newPassport.manufactureDate = _manufactureDate;\r\n        newPassport.expectedLifecycle = _expectedLifecycle;\r\n        newPassport.isBatteryReplaceable = _isBatteryReplaceable;\r\n        newPassport.disposalEvent = DisposalEvent(\"\", \"\", \"\", \"\");\r\n\r\n        emit PassportCreated(\r\n            _imeiNumber,\r\n            _phoneName,\r\n            _manufacturer,\r\n            _expectedLifecycle,\r\n            _manufactureDate,\r\n            _isBatteryReplaceable\r\n        );\r\n    }\r\n\r\n    function updateAdditionalDetails(\r\n        uint256 _imeiNumber,\r\n        bool _is5GCapable,\r\n        uint256 _releaseDate,\r\n        string memory _os,\r\n        string memory _chipset,\r\n        uint16 _phoneMemory,\r\n        string memory _batteryType,\r\n        string memory _condition,\r\n        uint8 _additionalExpectedLifecycle,\r\n        uint256 _achievedLifecycle\r\n    ) public {\r\n        require(hasRole(MANUFACTURER_ROLE, msg.sender), \"Unauthorized!\");\r\n        require(passports[_imeiNumber].imeiNumber == _imeiNumber, \"IMEI does not exist!\");\r\n\r\n        EWastePassport storage passportToUpdate = passports[_imeiNumber];\r\n\r\n        passportToUpdate.additionalDetails = AdditionalDetails({\r\n            is5GCapable: _is5GCapable,\r\n            releaseDate: _releaseDate,\r\n            os: _os,\r\n            chipset: _chipset,\r\n            phoneMemory: _phoneMemory,\r\n            batteryType: _batteryType,\r\n            condition: _condition,\r\n            expectedLifecycle: _additionalExpectedLifecycle,\r\n            achievedLifecycle: _achievedLifecycle\r\n        });\r\n    }\r\n\r\n    function addComponentsToPassport(\r\n        uint256 _imeiNumber,\r\n        string[] memory _componentNames,\r\n        string[] memory _materials\r\n    ) public {\r\n        require(hasRole(MANUFACTURER_ROLE, msg.sender), \"Unauthorized!\");\r\n        require(passports[_imeiNumber].imeiNumber == _imeiNumber, \"IMEI does not exist!\");\r\n        require(_componentNames.length == _materials.length, \"Arrays length mismatch\");\r\n\r\n        EWastePassport storage passportToUpdate = passports[_imeiNumber];\r\n\r\n        for (uint256 i = 0; i < _componentNames.length; i++) {\r\n            Component memory newComponent = Component({\r\n                componentName: _componentNames[i],\r\n                material: _materials[i]\r\n            });\r\n            passportToUpdate.components.push(newComponent);\r\n        }\r\n    }\r\n\r\n\r\n    // Helper function to convert address to string (useful for logging in eventDescription)\r\n    function addressToString(address _address) private pure returns(string memory) {\r\n        bytes32 value = bytes32(uint256(uint160(_address)));\r\n        bytes memory alphabet = \"0123456789abcdef\";\r\n        \r\n        bytes memory str = new bytes(42);\r\n        str[0] = '0';\r\n        str[1] = 'x';\r\n        for (uint256 i = 0; i < 20; i++) {\r\n            str[2 + i * 2] = alphabet[uint8(value[i + 12] >> 4)];\r\n            str[3 + i * 2] = alphabet[uint8(value[i + 12] & 0x0f)];\r\n        }\r\n        return string(str);\r\n    }\r\n\r\n\r\n    event SellTransaction(\r\n        uint256 indexed imeiNumber,\r\n        string actionPerformed,\r\n        string sourceEntityType,\r\n        address indexed sourceEntityAddress,\r\n        string targetEntityType,\r\n        address indexed targetEntityAddress\r\n    );  \r\n\r\n    function sellTransaction(\r\n        uint256 _imeiNumber,\r\n        string memory sourceEntityType,\r\n        string memory targetEntityType,\r\n        address sourceEntityAddress,\r\n        address targetEntityAddress) \r\n        public {\r\n            \r\n            require(hasRole(MANUFACTURER_ROLE, msg.sender) || hasRole(DISTRIBUTOR_ROLE, msg.sender) || \r\n                    hasRole(RETAILER_ROLE, msg.sender) || hasRole(REFURBISHER_ROLE, msg.sender), \"Unauthorized!\");\r\n\r\n            require(passports[_imeiNumber].imeiNumber == _imeiNumber, \"IMEI does not exist!\");\r\n\r\n            string memory actionPerformed = \"sell\";\r\n\r\n            string memory eventDescription;\r\n\r\n            eventDescription = string(abi.encodePacked(\r\n                sourceEntityType, \" \", actionPerformed, \" to \", targetEntityType\r\n            ));\r\n\r\n             LifecycleEvent memory newEvent = LifecycleEvent({\r\n                eventDescription: eventDescription,\r\n                timestamp: block.timestamp\r\n            });    \r\n\r\n            emit SellTransaction(_imeiNumber, actionPerformed ,sourceEntityType, sourceEntityAddress, targetEntityType, targetEntityAddress);\r\n\r\n            passports[_imeiNumber].lifecycleEvents.push(newEvent);\r\n    }\r\n\r\n    event GiveTransaction(\r\n        uint256 indexed imeiNumber,\r\n        string actionPerformed,\r\n        string sourceEntityType,\r\n        address indexed sourceEntityAddress,\r\n        string targetEntityType,\r\n        address indexed targetEntityAddress\r\n    );  \r\n\r\n    function giveTransaction(\r\n        uint256 _imeiNumber,\r\n        string memory sourceEntityType,\r\n        string memory targetEntityType,\r\n        address sourceEntityAddress,\r\n        address targetEntityAddress) \r\n        public {\r\n            \r\n            require(hasRole(MANUFACTURER_ROLE, msg.sender) || hasRole(CONSUMER_ROLE, msg.sender) || \r\n                    hasRole(REFURBISHER_ROLE, msg.sender), \"Unauthorized!\");\r\n\r\n            require(passports[_imeiNumber].imeiNumber == _imeiNumber, \"IMEI does not exist!\");\r\n\r\n            string memory actionPerformed = \"give\";\r\n\r\n            string memory eventDescription;\r\n\r\n            eventDescription = string(abi.encodePacked(\r\n                sourceEntityType, \" \", actionPerformed, \" to \", targetEntityType\r\n            ));\r\n\r\n             LifecycleEvent memory newEvent = LifecycleEvent({\r\n                eventDescription: eventDescription,\r\n                timestamp: block.timestamp\r\n            });    \r\n\r\n            emit GiveTransaction(_imeiNumber, \r\n                                actionPerformed, \r\n                                sourceEntityType, \r\n                                sourceEntityAddress, \r\n                                targetEntityType, \r\n                                targetEntityAddress);\r\n\r\n            passports[_imeiNumber].lifecycleEvents.push(newEvent);\r\n    }\r\n\r\n    event ReturnTransaction(\r\n        uint256 indexed imeiNumber,\r\n        string actionPerformed,\r\n        string sourceEntityType,\r\n        address indexed sourceEntityAddress,\r\n        string targetEntityType,\r\n        address indexed targetEntityAddress\r\n    );  \r\n\r\n    function returnTransaction(\r\n        uint256 _imeiNumber,\r\n        string memory sourceEntityType,\r\n        string memory targetEntityType,\r\n        address sourceEntityAddress,\r\n        address targetEntityAddress) \r\n        public {\r\n            \r\n            require(hasRole(CONSUMER_ROLE, msg.sender) || hasRole(REFURBISHER_ROLE, msg.sender), \"Unauthorized!\");\r\n\r\n            require(passports[_imeiNumber].imeiNumber == _imeiNumber, \"IMEI does not exist!\");\r\n\r\n            string memory actionPerformed = \"return\";\r\n\r\n            string memory eventDescription;\r\n\r\n            eventDescription = string(abi.encodePacked(\r\n                sourceEntityType, \" \", actionPerformed, \" to \", targetEntityType\r\n            ));\r\n\r\n             LifecycleEvent memory newEvent = LifecycleEvent({\r\n                eventDescription: eventDescription,\r\n                timestamp: block.timestamp\r\n            });     \r\n\r\n            emit ReturnTransaction(\r\n                _imeiNumber, \r\n                actionPerformed, \r\n                sourceEntityType, \r\n                sourceEntityAddress, \r\n                targetEntityType, \r\n                targetEntityAddress\r\n            );\r\n\r\n\r\n            passports[_imeiNumber].lifecycleEvents.push(newEvent);\r\n    } \r\n\r\nevent DisposeTransaction(\r\n    uint256 indexed imeiNumber,\r\n    string actionPerformed,\r\n    string sourceEntityType,\r\n    address indexed sourceEntityAddress,\r\n    string targetEntityType,\r\n    address indexed targetEntityAddress\r\n);  \r\n\r\nfunction disposeTransaction(\r\n    uint256 _imeiNumber,\r\n    string memory sourceEntityType,\r\n    address sourceEntityAddress,     \r\n    string memory _disposalMethod,  \r\n    string memory _disposalDate,\r\n    string memory _disposalLocation)\r\n    public {\r\n        \r\n        require(hasRole(CONSUMER_ROLE, msg.sender) || hasRole(REFURBISHER_ROLE, msg.sender) || \r\n                hasRole(RECYCLER_ROLE, msg.sender) || hasRole(MANUFACTURER_ROLE, msg.sender), \"Unauthorized!\");\r\n\r\n        require(passports[_imeiNumber].imeiNumber == _imeiNumber, \"IMEI does not exist!\");\r\n\r\n        string memory actionPerformed = \"dispose\";\r\n\r\n        passports[_imeiNumber].disposalEvent.disposalMethod = _disposalMethod;\r\n        passports[_imeiNumber].disposalEvent.disposalDate = _disposalDate;\r\n        passports[_imeiNumber].disposalEvent.location = _disposalLocation;\r\n        passports[_imeiNumber].disposalEvent.disposedBy = addressToString(sourceEntityAddress);\r\n\r\n        string memory eventDescription;\r\n\r\n        eventDescription = string(abi.encodePacked(\r\n            actionPerformed, \" by \", sourceEntityType\r\n        ));\r\n\r\n        LifecycleEvent memory newEvent = LifecycleEvent({\r\n            eventDescription: eventDescription,\r\n            timestamp: block.timestamp\r\n        });   \r\n\r\n        passports[_imeiNumber].lifecycleEvents.push(newEvent);\r\n\r\n        // Emit the event\r\n        emit DisposeTransaction(\r\n            _imeiNumber, \r\n            actionPerformed, \r\n            sourceEntityType, \r\n            sourceEntityAddress,\r\n            \"disposal center\",  // Empty targetEntityType\r\n            address(0)\r\n        );\r\n}\r\n\r\n    // event GovernmentTransactionRequest(\r\n    //     uint256 indexed imeiNumber,\r\n    //     address indexed requestorAddress\r\n    // );\r\n\r\n    // function governmentTransaction(uint256 _imeiNumber) public returns (EWastePassport memory) {\r\n    //     require(hasRole(GOVERNMENT_ROLE, msg.sender), \"Unauthorized!\");\r\n\r\n    //     // Emitting the event\r\n    //     emit GovernmentTransactionRequest(_imeiNumber, msg.sender);\r\n\r\n    //     return passports[_imeiNumber];\r\n    // }\r\n\r\n    // Returns the number of lifecycle events for a given IMEI\r\n    function getLifecycleEventsCount(uint256 _imeiNumber) public view returns (uint256) {\r\n        return passports[_imeiNumber].lifecycleEvents.length;\r\n    }\r\n\r\n    // Returns the lifecycle event at a specified index for a given IMEI\r\n    function getLifecycleEvent(uint256 _imeiNumber, uint256 index) public view returns (string memory eventDescription, uint256 timestamp) {\r\n        require(index < passports[_imeiNumber].lifecycleEvents.length, \"Index out of bounds\");\r\n        LifecycleEvent memory lifecycleEvent = passports[_imeiNumber].lifecycleEvents[index];\r\n        return (lifecycleEvent.eventDescription, lifecycleEvent.timestamp);\r\n    }\r\n\r\n    function getDisposalDetails(uint256 imeiNumber) public view returns (string memory, string memory, string memory, string memory) {\r\n        DisposalEvent memory disposal = passports[imeiNumber].disposalEvent;\r\n        return (disposal.disposalMethod, disposal.disposalDate, disposal.location, disposal.disposedBy);\r\n    }\r\n\r\n    function getPassportByIMEI(uint256 _imeiNumber) public view returns (EWastePassport memory) {\r\n        return passports[_imeiNumber];\r\n    }\r\n\r\n    // event EnvironmentTransactionEvent(\r\n    //     uint256 indexed imeiNumber,\r\n    //     address indexed requestorAddress\r\n    // );\r\n\r\n    // function environmentTransaction(uint256 _imeiNumber) public returns (LifecycleEvent[] memory, DisposalEvent memory) {\r\n    //     require(hasRole(ENVIRONMENT_ROLE, msg.sender), \"Unauthorized!\");\r\n    //     require(passports[_imeiNumber].imeiNumber == _imeiNumber, \"IMEI does not exist!\");\r\n\r\n    //     // Emitting the event\r\n    //     emit EnvironmentTransactionEvent(_imeiNumber, msg.sender);\r\n\r\n    //     return (passports[_imeiNumber].lifecycleEvents, passports[_imeiNumber].disposalEvent);\r\n    // }\r\n    \r\n\r\n}",
  "sourcePath": "C:\\Users\\jaina\\Desktop\\Sustainability Challenge\\e-waste-tracking\\contracts\\EWasteTracking.sol",
  "compiler": {
    "name": "solc",
    "version": "0.8.13+commit.abaa5c0e.Emscripten.clang"
  },
  "schemaVersion": "3.4.16",
  "updatedAt": "2023-10-22T14:11:15.307Z",
  "devdoc": {
    "kind": "dev",
    "methods": {
      "getRoleAdmin(bytes32)": {
        "details": "Returns the admin role that controls `role`. See {grantRole} and {revokeRole}. To change a role's admin, use {_setRoleAdmin}."
      },
      "grantRole(bytes32,address)": {
        "details": "Grants `role` to `account`. If `account` had not been already granted `role`, emits a {RoleGranted} event. Requirements: - the caller must have ``role``'s admin role. May emit a {RoleGranted} event."
      },
      "hasRole(bytes32,address)": {
        "details": "Returns `true` if `account` has been granted `role`."
      },
      "renounceRole(bytes32,address)": {
        "details": "Revokes `role` from the calling account. Roles are often managed via {grantRole} and {revokeRole}: this function's purpose is to provide a mechanism for accounts to lose their privileges if they are compromised (such as when a trusted device is misplaced). If the calling account had been revoked `role`, emits a {RoleRevoked} event. Requirements: - the caller must be `account`. May emit a {RoleRevoked} event."
      },
      "revokeRole(bytes32,address)": {
        "details": "Revokes `role` from `account`. If `account` had been granted `role`, emits a {RoleRevoked} event. Requirements: - the caller must have ``role``'s admin role. May emit a {RoleRevoked} event."
      },
      "supportsInterface(bytes4)": {
        "details": "See {IERC165-supportsInterface}."
      }
    },
    "version": 1
  },
  "userdoc": {
    "kind": "user",
    "methods": {},
    "version": 1
  }
}