{
  "contractName": "SmartphoneEWasteTracking",
  "abi": [
    {
      "inputs": [],
      "stateMutability": "nonpayable",
      "type": "constructor"
    },
    {
      "anonymous": false,
      "inputs": [
        {
          "indexed": true,
          "internalType": "bytes32",
          "name": "role",
          "type": "bytes32"
        },
        {
          "indexed": true,
          "internalType": "bytes32",
          "name": "previousAdminRole",
          "type": "bytes32"
        },
        {
          "indexed": true,
          "internalType": "bytes32",
          "name": "newAdminRole",
          "type": "bytes32"
        }
      ],
      "name": "RoleAdminChanged",
      "type": "event"
    },
    {
      "anonymous": false,
      "inputs": [
        {
          "indexed": true,
          "internalType": "bytes32",
          "name": "role",
          "type": "bytes32"
        },
        {
          "indexed": true,
          "internalType": "address",
          "name": "account",
          "type": "address"
        },
        {
          "indexed": true,
          "internalType": "address",
          "name": "sender",
          "type": "address"
        }
      ],
      "name": "RoleGranted",
      "type": "event"
    },
    {
      "anonymous": false,
      "inputs": [
        {
          "indexed": true,
          "internalType": "bytes32",
          "name": "role",
          "type": "bytes32"
        },
        {
          "indexed": true,
          "internalType": "address",
          "name": "account",
          "type": "address"
        },
        {
          "indexed": true,
          "internalType": "address",
          "name": "sender",
          "type": "address"
        }
      ],
      "name": "RoleRevoked",
      "type": "event"
    },
    {
      "inputs": [],
      "name": "CONSUMER_ROLE",
      "outputs": [
        {
          "internalType": "bytes32",
          "name": "",
          "type": "bytes32"
        }
      ],
      "stateMutability": "view",
      "type": "function"
    },
    {
      "inputs": [],
      "name": "DEFAULT_ADMIN_ROLE",
      "outputs": [
        {
          "internalType": "bytes32",
          "name": "",
          "type": "bytes32"
        }
      ],
      "stateMutability": "view",
      "type": "function"
    },
    {
      "inputs": [],
      "name": "DISTRIBUTOR_ROLE",
      "outputs": [
        {
          "internalType": "bytes32",
          "name": "",
          "type": "bytes32"
        }
      ],
      "stateMutability": "view",
      "type": "function"
    },
    {
      "inputs": [],
      "name": "ENVIRONMENT_ROLE",
      "outputs": [
        {
          "internalType": "bytes32",
          "name": "",
          "type": "bytes32"
        }
      ],
      "stateMutability": "view",
      "type": "function"
    },
    {
      "inputs": [],
      "name": "GOVERNMENT_ROLE",
      "outputs": [
        {
          "internalType": "bytes32",
          "name": "",
          "type": "bytes32"
        }
      ],
      "stateMutability": "view",
      "type": "function"
    },
    {
      "inputs": [],
      "name": "MANUFACTURER_ROLE",
      "outputs": [
        {
          "internalType": "bytes32",
          "name": "",
          "type": "bytes32"
        }
      ],
      "stateMutability": "view",
      "type": "function"
    },
    {
      "inputs": [],
      "name": "RECYCLER_ROLE",
      "outputs": [
        {
          "internalType": "bytes32",
          "name": "",
          "type": "bytes32"
        }
      ],
      "stateMutability": "view",
      "type": "function"
    },
    {
      "inputs": [],
      "name": "REFURBISHER_ROLE",
      "outputs": [
        {
          "internalType": "bytes32",
          "name": "",
          "type": "bytes32"
        }
      ],
      "stateMutability": "view",
      "type": "function"
    },
    {
      "inputs": [],
      "name": "RETAILER_ROLE",
      "outputs": [
        {
          "internalType": "bytes32",
          "name": "",
          "type": "bytes32"
        }
      ],
      "stateMutability": "view",
      "type": "function"
    },
    {
      "inputs": [
        {
          "internalType": "bytes32",
          "name": "role",
          "type": "bytes32"
        }
      ],
      "name": "getRoleAdmin",
      "outputs": [
        {
          "internalType": "bytes32",
          "name": "",
          "type": "bytes32"
        }
      ],
      "stateMutability": "view",
      "type": "function"
    },
    {
      "inputs": [
        {
          "internalType": "bytes32",
          "name": "role",
          "type": "bytes32"
        },
        {
          "internalType": "address",
          "name": "account",
          "type": "address"
        }
      ],
      "name": "grantRole",
      "outputs": [],
      "stateMutability": "nonpayable",
      "type": "function"
    },
    {
      "inputs": [
        {
          "internalType": "bytes32",
          "name": "role",
          "type": "bytes32"
        },
        {
          "internalType": "address",
          "name": "account",
          "type": "address"
        }
      ],
      "name": "hasRole",
      "outputs": [
        {
          "internalType": "bool",
          "name": "",
          "type": "bool"
        }
      ],
      "stateMutability": "view",
      "type": "function"
    },
    {
      "inputs": [
        {
          "internalType": "uint256",
          "name": "",
          "type": "uint256"
        }
      ],
      "name": "passports",
      "outputs": [
        {
          "internalType": "string",
          "name": "smartphoneModel",
          "type": "string"
        },
        {
          "internalType": "string",
          "name": "manufacturer",
          "type": "string"
        },
        {
          "internalType": "uint256",
          "name": "imeiNumber",
          "type": "uint256"
        },
        {
          "internalType": "uint256",
          "name": "manufactureDate",
          "type": "uint256"
        },
        {
          "internalType": "uint256",
          "name": "expectedLifecycle",
          "type": "uint256"
        },
        {
          "internalType": "bool",
          "name": "isBatteryReplaceable",
          "type": "bool"
        },
        {
          "components": [
            {
              "internalType": "string",
              "name": "disposalMethod",
              "type": "string"
            },
            {
              "internalType": "string",
              "name": "disposalDate",
              "type": "string"
            },
            {
              "internalType": "string",
              "name": "location",
              "type": "string"
            },
            {
              "internalType": "string",
              "name": "disposedBy",
              "type": "string"
            }
          ],
          "internalType": "struct SmartphoneEWasteTracking.DisposalEvent",
          "name": "disposalEvent",
          "type": "tuple"
        }
      ],
      "stateMutability": "view",
      "type": "function"
    },
    {
      "inputs": [
        {
          "internalType": "bytes32",
          "name": "role",
          "type": "bytes32"
        },
        {
          "internalType": "address",
          "name": "account",
          "type": "address"
        }
      ],
      "name": "renounceRole",
      "outputs": [],
      "stateMutability": "nonpayable",
      "type": "function"
    },
    {
      "inputs": [
        {
          "internalType": "bytes32",
          "name": "role",
          "type": "bytes32"
        },
        {
          "internalType": "address",
          "name": "account",
          "type": "address"
        }
      ],
      "name": "revokeRole",
      "outputs": [],
      "stateMutability": "nonpayable",
      "type": "function"
    },
    {
      "inputs": [
        {
          "internalType": "bytes4",
          "name": "interfaceId",
          "type": "bytes4"
        }
      ],
      "name": "supportsInterface",
      "outputs": [
        {
          "internalType": "bool",
          "name": "",
          "type": "bool"
        }
      ],
      "stateMutability": "view",
      "type": "function"
    },
    {
      "inputs": [
        {
          "internalType": "uint256",
          "name": "_imeiNumber",
          "type": "uint256"
        },
        {
          "internalType": "string",
          "name": "_smartphoneModel",
          "type": "string"
        },
        {
          "internalType": "string",
          "name": "_manufacturer",
          "type": "string"
        },
        {
          "internalType": "uint256",
          "name": "_expectedLifecycle",
          "type": "uint256"
        },
        {
          "internalType": "uint256",
          "name": "_manufactureDate",
          "type": "uint256"
        },
        {
          "internalType": "bool",
          "name": "_isBatteryReplaceable",
          "type": "bool"
        }
      ],
      "name": "createNewPassport",
      "outputs": [],
      "stateMutability": "nonpayable",
      "type": "function"
    },
    {
      "inputs": [
        {
          "internalType": "uint256",
          "name": "_imeiNumber",
          "type": "uint256"
        },
        {
          "internalType": "uint8",
          "name": "actionType",
          "type": "uint8"
        },
        {
          "internalType": "address",
          "name": "entityAddress",
          "type": "address"
        },
        {
          "internalType": "string",
          "name": "smartphoneDetails",
          "type": "string"
        },
        {
          "internalType": "string",
          "name": "additionalInfo",
          "type": "string"
        },
        {
          "internalType": "string",
          "name": "disposalMethod",
          "type": "string"
        },
        {
          "internalType": "string",
          "name": "disposalDate",
          "type": "string"
        },
        {
          "internalType": "string",
          "name": "location",
          "type": "string"
        }
      ],
      "name": "manufacturerTransaction",
      "outputs": [],
      "stateMutability": "nonpayable",
      "type": "function"
    },
    {
      "inputs": [
        {
          "internalType": "uint256",
          "name": "_imeiNumber",
          "type": "uint256"
        },
        {
          "internalType": "uint8",
          "name": "actionType",
          "type": "uint8"
        },
        {
          "internalType": "address",
          "name": "entityAddress",
          "type": "address"
        },
        {
          "internalType": "string",
          "name": "additionalInfo",
          "type": "string"
        },
        {
          "internalType": "string",
          "name": "smartphoneDetails",
          "type": "string"
        },
        {
          "internalType": "string",
          "name": "disposalMethod",
          "type": "string"
        },
        {
          "internalType": "string",
          "name": "disposalDate",
          "type": "string"
        },
        {
          "internalType": "string",
          "name": "location",
          "type": "string"
        }
      ],
      "name": "consumerTransaction",
      "outputs": [],
      "stateMutability": "nonpayable",
      "type": "function"
    },
    {
      "inputs": [
        {
          "internalType": "uint256",
          "name": "_imeiNumber",
          "type": "uint256"
        },
        {
          "internalType": "uint8",
          "name": "actionType",
          "type": "uint8"
        },
        {
          "internalType": "address",
          "name": "entityAddress",
          "type": "address"
        },
        {
          "internalType": "string",
          "name": "additionalInfo",
          "type": "string"
        },
        {
          "internalType": "string",
          "name": "smartphoneDetails",
          "type": "string"
        },
        {
          "internalType": "string",
          "name": "disposalMethod",
          "type": "string"
        },
        {
          "internalType": "string",
          "name": "disposalDate",
          "type": "string"
        },
        {
          "internalType": "string",
          "name": "location",
          "type": "string"
        }
      ],
      "name": "refurbisherTransaction",
      "outputs": [],
      "stateMutability": "nonpayable",
      "type": "function"
    },
    {
      "inputs": [
        {
          "internalType": "uint256",
          "name": "_imeiNumber",
          "type": "uint256"
        },
        {
          "internalType": "string",
          "name": "_disposalMethod",
          "type": "string"
        },
        {
          "internalType": "string",
          "name": "_disposalDate",
          "type": "string"
        },
        {
          "internalType": "string",
          "name": "_location",
          "type": "string"
        }
      ],
      "name": "recyclerTransaction",
      "outputs": [],
      "stateMutability": "nonpayable",
      "type": "function"
    },
    {
      "inputs": [
        {
          "internalType": "uint256",
          "name": "_imeiNumber",
          "type": "uint256"
        },
        {
          "internalType": "address",
          "name": "retailerAddress",
          "type": "address"
        },
        {
          "internalType": "string",
          "name": "smartphoneDetails",
          "type": "string"
        },
        {
          "internalType": "string",
          "name": "additionalInfo",
          "type": "string"
        }
      ],
      "name": "distributorTransaction",
      "outputs": [],
      "stateMutability": "nonpayable",
      "type": "function"
    },
    {
      "inputs": [
        {
          "internalType": "uint256",
          "name": "_imeiNumber",
          "type": "uint256"
        },
        {
          "internalType": "address",
          "name": "consumerAddress",
          "type": "address"
        },
        {
          "internalType": "string",
          "name": "smartphoneDetails",
          "type": "string"
        },
        {
          "internalType": "string",
          "name": "additionalInfo",
          "type": "string"
        }
      ],
      "name": "retailerTransaction",
      "outputs": [],
      "stateMutability": "nonpayable",
      "type": "function"
    },
    {
      "inputs": [
        {
          "internalType": "uint256",
          "name": "_imeiNumber",
          "type": "uint256"
        }
      ],
      "name": "governmentTransaction",
      "outputs": [
        {
          "components": [
            {
              "internalType": "string",
              "name": "smartphoneModel",
              "type": "string"
            },
            {
              "internalType": "string",
              "name": "manufacturer",
              "type": "string"
            },
            {
              "internalType": "uint256",
              "name": "imeiNumber",
              "type": "uint256"
            },
            {
              "internalType": "uint256",
              "name": "manufactureDate",
              "type": "uint256"
            },
            {
              "internalType": "uint256",
              "name": "expectedLifecycle",
              "type": "uint256"
            },
            {
              "internalType": "bool",
              "name": "isBatteryReplaceable",
              "type": "bool"
            },
            {
              "components": [
                {
                  "internalType": "string",
                  "name": "componentName",
                  "type": "string"
                },
                {
                  "internalType": "string",
                  "name": "material",
                  "type": "string"
                },
                {
                  "internalType": "bool",
                  "name": "isHazardous",
                  "type": "bool"
                }
              ],
              "internalType": "struct SmartphoneEWasteTracking.Component[]",
              "name": "components",
              "type": "tuple[]"
            },
            {
              "components": [
                {
                  "internalType": "string",
                  "name": "eventDescription",
                  "type": "string"
                },
                {
                  "internalType": "uint256",
                  "name": "timestamp",
                  "type": "uint256"
                }
              ],
              "internalType": "struct SmartphoneEWasteTracking.LifecycleEvent[]",
              "name": "lifecycleEvents",
              "type": "tuple[]"
            },
            {
              "components": [
                {
                  "internalType": "string",
                  "name": "disposalMethod",
                  "type": "string"
                },
                {
                  "internalType": "string",
                  "name": "disposalDate",
                  "type": "string"
                },
                {
                  "internalType": "string",
                  "name": "location",
                  "type": "string"
                },
                {
                  "internalType": "string",
                  "name": "disposedBy",
                  "type": "string"
                }
              ],
              "internalType": "struct SmartphoneEWasteTracking.DisposalEvent",
              "name": "disposalEvent",
              "type": "tuple"
            }
          ],
          "internalType": "struct SmartphoneEWasteTracking.EWastePassport",
          "name": "",
          "type": "tuple"
        }
      ],
      "stateMutability": "view",
      "type": "function"
    },
    {
      "inputs": [
        {
          "internalType": "uint256",
          "name": "_imeiNumber",
          "type": "uint256"
        }
      ],
      "name": "environmentTransaction",
      "outputs": [
        {
          "components": [
            {
              "internalType": "string",
              "name": "eventDescription",
              "type": "string"
            },
            {
              "internalType": "uint256",
              "name": "timestamp",
              "type": "uint256"
            }
          ],
          "internalType": "struct SmartphoneEWasteTracking.LifecycleEvent[]",
          "name": "",
          "type": "tuple[]"
        },
        {
          "components": [
            {
              "internalType": "string",
              "name": "disposalMethod",
              "type": "string"
            },
            {
              "internalType": "string",
              "name": "disposalDate",
              "type": "string"
            },
            {
              "internalType": "string",
              "name": "location",
              "type": "string"
            },
            {
              "internalType": "string",
              "name": "disposedBy",
              "type": "string"
            }
          ],
          "internalType": "struct SmartphoneEWasteTracking.DisposalEvent",
          "name": "",
          "type": "tuple"
        }
      ],
      "stateMutability": "view",
      "type": "function"
    }
  ],
  "bytecode": "0x608060405234801562000010575f80fd5b50620000255f801b33620001bb60201b60201c565b620000577feefb95e842a3287179d933b4460be539a1d5af11aa8b325bb45c5c8dc92de4ed33620001bb60201b60201c565b620000897ffbd454f36a7e1a388bd6fc3ab10d434aa4578f811acbbcf33afb1c697486313c33620001bb60201b60201c565b620000bb7f2a5f906c256a5d799494fcd066e1f6c077689de1cdb65052a1624de4bace99bf33620001bb60201b60201c565b620000ed7f9d56108290ea0bc9c5c59c3ad357dca9d1b29ed7f3ae1443bef2fa2159bdf5e833620001bb60201b60201c565b6200011f7f8f463a6918e1869202f6e4cb571a61221f15cce00dcd23d22ccd078658b9159c33620001bb60201b60201c565b620001517f11d2c681bc9c10ed61f9a422c0dbaaddc4054ce58ec726aca73e7e4d31bcd15433620001bb60201b60201c565b620001837f39e9cf582f9259a2b06afce62d388bb753744053c6f5548627bba4ed096826cf33620001bb60201b60201c565b620001b57fd9d062b29c8756d894f301c5167d214c34d627724cd7fc859ab9329c9330cf5133620001bb60201b60201c565b62000326565b620001cd8282620001d160201b60201c565b5050565b620001e38282620002bc60201b60201c565b620002b85760015f808481526020019081526020015f205f015f8373ffffffffffffffffffffffffffffffffffffffff1673ffffffffffffffffffffffffffffffffffffffff1681526020019081526020015f205f6101000a81548160ff0219169083151502179055506200025d6200031f60201b60201c565b73ffffffffffffffffffffffffffffffffffffffff168173ffffffffffffffffffffffffffffffffffffffff16837f2f8788117e7eff1d82e926ec794901d17c78024a50270940304540a733656f0d60405160405180910390a45b5050565b5f805f8481526020019081526020015f205f015f8373ffffffffffffffffffffffffffffffffffffffff1673ffffffffffffffffffffffffffffffffffffffff1681526020019081526020015f205f9054906101000a900460ff16905092915050565b5f33905090565b614a1e80620003345f395ff3fe608060405234801561000f575f80fd5b5060043610610171575f3560e01c80638eaf79dc116100dc578063b458149211610095578063cb22f5fd1161006f578063cb22f5fd14610436578063d547741f1461046c578063f0bd87cc14610488578063fe650a74146104a657610171565b8063b4581492146103dc578063bf313778146103fa578063c7c212da1461041857610171565b80638eaf79dc1461031a57806390c8647a1461033657806391d1485414610352578063965288b0146103825780639cbed582146103a0578063a217fddf146103be57610171565b80632f2ff15d1161012e5780632f2ff15d1461027057806336568abe1461028c5780633dc4989e146102a85780634bc02da6146102c457806362643e46146102e2578063864f9fc1146102fe57610171565b806301ffc9a7146101755780630d6be9eb146101a55780631203fd98146101c15780632115e7bf146101f2578063248a9ca314610210578063284a390714610240575b5f80fd5b61018f600480360381019061018a9190612d4d565b6104c2565b60405161019c9190612d92565b60405180910390f35b6101bf60048036038101906101ba9190612f44565b61053b565b005b6101db60048036038101906101d69190613005565b610726565b6040516101e9929190613223565b60405180910390f35b6101fa610b5c565b6040516102079190613270565b60405180910390f35b61022a600480360381019061022591906132b3565b610b80565b6040516102379190613270565b60405180910390f35b61025a60048036038101906102559190613005565b610b9c565b60405161026791906135d2565b60405180910390f35b61028a6004803603810190610285919061364c565b611265565b005b6102a660048036038101906102a1919061364c565b611286565b005b6102c260048036038101906102bd91906136c0565b611309565b005b6102cc6115a5565b6040516102d99190613270565b60405180910390f35b6102fc60048036038101906102f791906136c0565b6115c9565b005b610318600480360381019061031391906136c0565b611826565b005b610334600480360381019061032f91906137fd565b611a83565b005b610350600480360381019061034b9190613899565b611bec565b005b61036c6004803603810190610367919061364c565b611cf6565b6040516103799190612d92565b60405180910390f35b61038a611d59565b6040516103979190613270565b60405180910390f35b6103a8611d7d565b6040516103b59190613270565b60405180910390f35b6103c6611da1565b6040516103d39190613270565b60405180910390f35b6103e4611da7565b6040516103f19190613270565b60405180910390f35b610402611dcb565b60405161040f9190613270565b60405180910390f35b610420611def565b60405161042d9190613270565b60405180910390f35b610450600480360381019061044b9190613005565b611e13565b60405161046397969594939291906139a8565b60405180910390f35b6104866004803603810190610481919061364c565b6121b2565b005b6104906121d3565b60405161049d9190613270565b60405180910390f35b6104c060048036038101906104bb91906137fd565b6121f7565b005b5f7f7965db0b000000000000000000000000000000000000000000000000000000007bffffffffffffffffffffffffffffffffffffffffffffffffffffffff1916827bffffffffffffffffffffffffffffffffffffffffffffffffffffffff19161480610534575061053382612360565b5b9050919050565b6105657feefb95e842a3287179d933b4460be539a1d5af11aa8b325bb45c5c8dc92de4ed33611cf6565b6105a4576040517f08c379a000000000000000000000000000000000000000000000000000000000815260040161059b90613a74565b60405180910390fd5b8560015f8881526020019081526020015f2060020154036105fa576040517f08c379a00000000000000000000000000000000000000000000000000000000081526004016105f190613adc565b60405180910390fd5b5f60015f8881526020019081526020015f20905085815f01908161061e9190613cf4565b50848160010190816106309190613cf4565b5086816002018190555082816003018190555083816004018190555081816005015f6101000a81548160ff021916908315150217905550604051806080016040528060405180602001604052805f815250815260200160405180602001604052805f815250815260200160405180602001604052805f815250815260200160405180602001604052805f815250815250816008015f820151815f0190816106d79190613cf4565b5060208201518160010190816106ed9190613cf4565b5060408201518160020190816107039190613cf4565b5060608201518160030190816107199190613cf4565b5090505050505050505050565b6060610730612c6f565b61075a7f39e9cf582f9259a2b06afce62d388bb753744053c6f5548627bba4ed096826cf33611cf6565b610799576040517f08c379a000000000000000000000000000000000000000000000000000000000815260040161079090613a74565b60405180910390fd5b8260015f8581526020019081526020015f2060020154146107ef576040517f08c379a00000000000000000000000000000000000000000000000000000000081526004016107e690613e0d565b60405180910390fd5b60015f8481526020019081526020015f2060070160015f8581526020019081526020015f2060080181805480602002602001604051908101604052809291908181526020015f905b82821015610900578382905f5260205f2090600202016040518060400160405290815f8201805461086790613b27565b80601f016020809104026020016040519081016040528092919081815260200182805461089390613b27565b80156108de5780601f106108b5576101008083540402835291602001916108de565b820191905f5260205f20905b8154815290600101906020018083116108c157829003601f168201915b5050505050815260200160018201548152505081526020019060010190610837565b505050509150806040518060800160405290815f8201805461092190613b27565b80601f016020809104026020016040519081016040528092919081815260200182805461094d90613b27565b80156109985780601f1061096f57610100808354040283529160200191610998565b820191905f5260205f20905b81548152906001019060200180831161097b57829003601f168201915b505050505081526020016001820180546109b190613b27565b80601f01602080910402602001604051908101604052809291908181526020018280546109dd90613b27565b8015610a285780601f106109ff57610100808354040283529160200191610a28565b820191905f5260205f20905b815481529060010190602001808311610a0b57829003601f168201915b50505050508152602001600282018054610a4190613b27565b80601f0160208091040260200160405190810160405280929190818152602001828054610a6d90613b27565b8015610ab85780601f10610a8f57610100808354040283529160200191610ab8565b820191905f5260205f20905b815481529060010190602001808311610a9b57829003601f168201915b50505050508152602001600382018054610ad190613b27565b80601f0160208091040260200160405190810160405280929190818152602001828054610afd90613b27565b8015610b485780601f10610b1f57610100808354040283529160200191610b48565b820191905f5260205f20905b815481529060010190602001808311610b2b57829003601f168201915b505050505081525050905091509150915091565b7f2a5f906c256a5d799494fcd066e1f6c077689de1cdb65052a1624de4bace99bf81565b5f805f8381526020019081526020015f20600101549050919050565b610ba4612c97565b610bce7fd9d062b29c8756d894f301c5167d214c34d627724cd7fc859ab9329c9330cf5133611cf6565b610c0d576040517f08c379a0000000000000000000000000000000000000000000000000000000008152600401610c0490613a74565b60405180910390fd5b60015f8381526020019081526020015f20604051806101200160405290815f82018054610c3990613b27565b80601f0160208091040260200160405190810160405280929190818152602001828054610c6590613b27565b8015610cb05780601f10610c8757610100808354040283529160200191610cb0565b820191905f5260205f20905b815481529060010190602001808311610c9357829003601f168201915b50505050508152602001600182018054610cc990613b27565b80601f0160208091040260200160405190810160405280929190818152602001828054610cf590613b27565b8015610d405780601f10610d1757610100808354040283529160200191610d40565b820191905f5260205f20905b815481529060010190602001808311610d2357829003601f168201915b50505050508152602001600282015481526020016003820154815260200160048201548152602001600582015f9054906101000a900460ff1615151515815260200160068201805480602002602001604051908101604052809291908181526020015f905b82821015610f0e578382905f5260205f2090600302016040518060600160405290815f82018054610dd590613b27565b80601f0160208091040260200160405190810160405280929190818152602001828054610e0190613b27565b8015610e4c5780601f10610e2357610100808354040283529160200191610e4c565b820191905f5260205f20905b815481529060010190602001808311610e2f57829003601f168201915b50505050508152602001600182018054610e6590613b27565b80601f0160208091040260200160405190810160405280929190818152602001828054610e9190613b27565b8015610edc5780601f10610eb357610100808354040283529160200191610edc565b820191905f5260205f20905b815481529060010190602001808311610ebf57829003601f168201915b50505050508152602001600282015f9054906101000a900460ff16151515158152505081526020019060010190610da5565b50505050815260200160078201805480602002602001604051908101604052809291908181526020015f905b82821015611003578382905f5260205f2090600202016040518060400160405290815f82018054610f6a90613b27565b80601f0160208091040260200160405190810160405280929190818152602001828054610f9690613b27565b8015610fe15780601f10610fb857610100808354040283529160200191610fe1565b820191905f5260205f20905b815481529060010190602001808311610fc457829003601f168201915b5050505050815260200160018201548152505081526020019060010190610f3a565b505050508152602001600882016040518060800160405290815f8201805461102a90613b27565b80601f016020809104026020016040519081016040528092919081815260200182805461105690613b27565b80156110a15780601f10611078576101008083540402835291602001916110a1565b820191905f5260205f20905b81548152906001019060200180831161108457829003601f168201915b505050505081526020016001820180546110ba90613b27565b80601f01602080910402602001604051908101604052809291908181526020018280546110e690613b27565b80156111315780601f1061110857610100808354040283529160200191611131565b820191905f5260205f20905b81548152906001019060200180831161111457829003601f168201915b5050505050815260200160028201805461114a90613b27565b80601f016020809104026020016040519081016040528092919081815260200182805461117690613b27565b80156111c15780601f10611198576101008083540402835291602001916111c1565b820191905f5260205f20905b8154815290600101906020018083116111a457829003601f168201915b505050505081526020016003820180546111da90613b27565b80601f016020809104026020016040519081016040528092919081815260200182805461120690613b27565b80156112515780601f1061122857610100808354040283529160200191611251565b820191905f5260205f20905b81548152906001019060200180831161123457829003601f168201915b505050505081525050815250509050919050565b61126e82610b80565b611277816123c9565b61128183836123dd565b505050565b61128e6124b7565b73ffffffffffffffffffffffffffffffffffffffff168173ffffffffffffffffffffffffffffffffffffffff16146112fb576040517f08c379a00000000000000000000000000000000000000000000000000000000081526004016112f290613e9b565b60405180910390fd5b61130582826124be565b5050565b6113337feefb95e842a3287179d933b4460be539a1d5af11aa8b325bb45c5c8dc92de4ed33611cf6565b611372576040517f08c379a000000000000000000000000000000000000000000000000000000000815260040161136990613a74565b60405180910390fd5b8760015f8a81526020019081526020015f2060020154146113c8576040517f08c379a00000000000000000000000000000000000000000000000000000000081526004016113bf90613e0d565b60405180910390fd5b606060018860ff1603611408576113de87612598565b86866040516020016113f29392919061401b565b6040516020818303038152906040529050611526565b60028860ff16036114465761141c87612598565b8686604051602001611430939291906140c1565b6040516020818303038152906040529050611525565b60038860ff16036114845761145a87612598565b868660405160200161146e93929190614167565b6040516020818303038152906040529050611524565b60048860ff16036114c25761149887612598565b86866040516020016114ac9392919061420d565b6040516020818303038152906040529050611523565b60058860ff16036114e7576114e2898585856114dd33612598565b612899565b611522565b6040517f08c379a0000000000000000000000000000000000000000000000000000000008152600401611519906142b3565b60405180910390fd5b5b5b5b5b5f604051806040016040528083815260200142815250905060015f8b81526020019081526020015f2060070181908060018154018082558091505060019003905f5260205f2090600202015f909190919091505f820151815f01908161158c9190613cf4565b5060208201518160010155505050505050505050505050565b7f9d56108290ea0bc9c5c59c3ad357dca9d1b29ed7f3ae1443bef2fa2159bdf5e881565b6115f37f9d56108290ea0bc9c5c59c3ad357dca9d1b29ed7f3ae1443bef2fa2159bdf5e833611cf6565b611632576040517f08c379a000000000000000000000000000000000000000000000000000000000815260040161162990613a74565b60405180910390fd5b8760015f8a81526020019081526020015f206002015414611688576040517f08c379a000000000000000000000000000000000000000000000000000000000815260040161167f90613e0d565b60405180910390fd5b606060018860ff16036116c85761169e87612598565b85876040516020016116b29392919061431b565b60405160208183030381529060405290506117a7565b60028860ff1603611706576116dc87612598565b85876040516020016116f0939291906143c1565b60405160208183030381529060405290506117a6565b60038860ff16036117445761171a87612598565b858760405160200161172e93929190614467565b60405160208183030381529060405290506117a5565b60048860ff1603611769576117648985858561175f33612598565b612899565b6117a4565b6040517f08c379a000000000000000000000000000000000000000000000000000000000815260040161179b9061450d565b60405180910390fd5b5b5b5b5f604051806040016040528083815260200142815250905060015f8b81526020019081526020015f2060070181908060018154018082558091505060019003905f5260205f2090600202015f909190919091505f820151815f01908161180d9190613cf4565b5060208201518160010155505050505050505050505050565b6118507f8f463a6918e1869202f6e4cb571a61221f15cce00dcd23d22ccd078658b9159c33611cf6565b61188f576040517f08c379a000000000000000000000000000000000000000000000000000000000815260040161188690613a74565b60405180910390fd5b8760015f8a81526020019081526020015f2060020154146118e5576040517f08c379a00000000000000000000000000000000000000000000000000000000081526004016118dc90613e0d565b60405180910390fd5b606060018860ff1603611925576118fb87612598565b858760405160200161190f93929190614167565b6040516020818303038152906040529050611a04565b60028860ff16036119635761193987612598565b858760405160200161194d939291906140c1565b6040516020818303038152906040529050611a03565b60038860ff16036119a15761197787612598565b858760405160200161198b93929190614467565b6040516020818303038152906040529050611a02565b60048860ff16036119c6576119c1898585856119bc33612598565b612899565b611a01565b6040517f08c379a00000000000000000000000000000000000000000000000000000000081526004016119f89061450d565b60405180910390fd5b5b5b5b5f604051806040016040528083815260200142815250905060015f8b81526020019081526020015f2060070181908060018154018082558091505060019003905f5260205f2090600202015f909190919091505f820151815f019081611a6a9190613cf4565b5060208201518160010155505050505050505050505050565b611aad7f2a5f906c256a5d799494fcd066e1f6c077689de1cdb65052a1624de4bace99bf33611cf6565b611aec576040517f08c379a0000000000000000000000000000000000000000000000000000000008152600401611ae390613a74565b60405180910390fd5b8360015f8681526020019081526020015f206002015414611b42576040517f08c379a0000000000000000000000000000000000000000000000000000000008152600401611b3990613e0d565b60405180910390fd5b5f611b4c84612598565b8383604051602001611b60939291906145e5565b60405160208183030381529060405290505f604051806040016040528083815260200142815250905060015f8781526020019081526020015f2060070181908060018154018082558091505060019003905f5260205f2090600202015f909190919091505f820151815f019081611bd79190613cf4565b50602082015181600101555050505050505050565b611c167f11d2c681bc9c10ed61f9a422c0dbaaddc4054ce58ec726aca73e7e4d31bcd15433611cf6565b611c55576040517f08c379a0000000000000000000000000000000000000000000000000000000008152600401611c4c90613a74565b60405180910390fd5b5f6040518060800160405280858152602001848152602001838152602001611c7c33612598565b81525090508060015f8781526020019081526020015f206008015f820151815f019081611ca99190613cf4565b506020820151816001019081611cbf9190613cf4565b506040820151816002019081611cd59190613cf4565b506060820151816003019081611ceb9190613cf4565b509050505050505050565b5f805f8481526020019081526020015f205f015f8373ffffffffffffffffffffffffffffffffffffffff1673ffffffffffffffffffffffffffffffffffffffff1681526020019081526020015f205f9054906101000a900460ff16905092915050565b7feefb95e842a3287179d933b4460be539a1d5af11aa8b325bb45c5c8dc92de4ed81565b7fd9d062b29c8756d894f301c5167d214c34d627724cd7fc859ab9329c9330cf5181565b5f801b81565b7f8f463a6918e1869202f6e4cb571a61221f15cce00dcd23d22ccd078658b9159c81565b7f11d2c681bc9c10ed61f9a422c0dbaaddc4054ce58ec726aca73e7e4d31bcd15481565b7f39e9cf582f9259a2b06afce62d388bb753744053c6f5548627bba4ed096826cf81565b6001602052805f5260405f205f91509050805f018054611e3290613b27565b80601f0160208091040260200160405190810160405280929190818152602001828054611e5e90613b27565b8015611ea95780601f10611e8057610100808354040283529160200191611ea9565b820191905f5260205f20905b815481529060010190602001808311611e8c57829003601f168201915b505050505090806001018054611ebe90613b27565b80601f0160208091040260200160405190810160405280929190818152602001828054611eea90613b27565b8015611f355780601f10611f0c57610100808354040283529160200191611f35565b820191905f5260205f20905b815481529060010190602001808311611f1857829003601f168201915b505050505090806002015490806003015490806004015490806005015f9054906101000a900460ff1690806008016040518060800160405290815f82018054611f7d90613b27565b80601f0160208091040260200160405190810160405280929190818152602001828054611fa990613b27565b8015611ff45780601f10611fcb57610100808354040283529160200191611ff4565b820191905f5260205f20905b815481529060010190602001808311611fd757829003601f168201915b5050505050815260200160018201805461200d90613b27565b80601f016020809104026020016040519081016040528092919081815260200182805461203990613b27565b80156120845780601f1061205b57610100808354040283529160200191612084565b820191905f5260205f20905b81548152906001019060200180831161206757829003601f168201915b5050505050815260200160028201805461209d90613b27565b80601f01602080910402602001604051908101604052809291908181526020018280546120c990613b27565b80156121145780601f106120eb57610100808354040283529160200191612114565b820191905f5260205f20905b8154815290600101906020018083116120f757829003601f168201915b5050505050815260200160038201805461212d90613b27565b80601f016020809104026020016040519081016040528092919081815260200182805461215990613b27565b80156121a45780601f1061217b576101008083540402835291602001916121a4565b820191905f5260205f20905b81548152906001019060200180831161218757829003601f168201915b505050505081525050905087565b6121bb82610b80565b6121c4816123c9565b6121ce83836124be565b505050565b7ffbd454f36a7e1a388bd6fc3ab10d434aa4578f811acbbcf33afb1c697486313c81565b6122217ffbd454f36a7e1a388bd6fc3ab10d434aa4578f811acbbcf33afb1c697486313c33611cf6565b612260576040517f08c379a000000000000000000000000000000000000000000000000000000000815260040161225790613a74565b60405180910390fd5b8360015f8681526020019081526020015f2060020154146122b6576040517f08c379a00000000000000000000000000000000000000000000000000000000081526004016122ad90613e0d565b60405180910390fd5b5f6122c084612598565b83836040516020016122d4939291906146fb565b60405160208183030381529060405290505f604051806040016040528083815260200142815250905060015f8781526020019081526020015f2060070181908060018154018082558091505060019003905f5260205f2090600202015f909190919091505f820151815f01908161234b9190613cf4565b50602082015181600101555050505050505050565b5f7f01ffc9a7000000000000000000000000000000000000000000000000000000007bffffffffffffffffffffffffffffffffffffffffffffffffffffffff1916827bffffffffffffffffffffffffffffffffffffffffffffffffffffffff1916149050919050565b6123da816123d56124b7565b612989565b50565b6123e78282611cf6565b6124b35760015f808481526020019081526020015f205f015f8373ffffffffffffffffffffffffffffffffffffffff1673ffffffffffffffffffffffffffffffffffffffff1681526020019081526020015f205f6101000a81548160ff0219169083151502179055506124586124b7565b73ffffffffffffffffffffffffffffffffffffffff168173ffffffffffffffffffffffffffffffffffffffff16837f2f8788117e7eff1d82e926ec794901d17c78024a50270940304540a733656f0d60405160405180910390a45b5050565b5f33905090565b6124c88282611cf6565b15612594575f805f8481526020019081526020015f205f015f8373ffffffffffffffffffffffffffffffffffffffff1673ffffffffffffffffffffffffffffffffffffffff1681526020019081526020015f205f6101000a81548160ff0219169083151502179055506125396124b7565b73ffffffffffffffffffffffffffffffffffffffff168173ffffffffffffffffffffffffffffffffffffffff16837ff6391f5c32d9c69d2a47ea670b442974b53935d1edc7fd64eb21e047a839171b60405160405180910390a45b5050565b60605f8273ffffffffffffffffffffffffffffffffffffffff165f1b90505f6040518060400160405280601081526020017f303132333435363738396162636465660000000000000000000000000000000081525090505f602a67ffffffffffffffff81111561260b5761260a612df6565b5b6040519080825280601f01601f19166020018201604052801561263d5781602001600182028036833780820191505090505b5090507f3000000000000000000000000000000000000000000000000000000000000000815f8151811061267457612673614757565b5b60200101907effffffffffffffffffffffffffffffffffffffffffffffffffffffffffffff191690815f1a9053507f7800000000000000000000000000000000000000000000000000000000000000816001815181106126d7576126d6614757565b5b60200101907effffffffffffffffffffffffffffffffffffffffffffffffffffffffffffff191690815f1a9053505f5b601481101561288d5782600485600c8461272191906147b1565b6020811061273257612731614757565b5b1a60f81b7effffffffffffffffffffffffffffffffffffffffffffffffffffffffffffff1916901c60f81c60ff168151811061277157612770614757565b5b602001015160f81c60f81b8260028361278a91906147e4565b600261279691906147b1565b815181106127a7576127a6614757565b5b60200101907effffffffffffffffffffffffffffffffffffffffffffffffffffffffffffff191690815f1a90535082600f60f81b85600c846127e991906147b1565b602081106127fa576127f9614757565b5b1a60f81b1660f81c60ff168151811061281657612815614757565b5b602001015160f81c60f81b8260028361282f91906147e4565b600361283b91906147b1565b8151811061284c5761284b614757565b5b60200101907effffffffffffffffffffffffffffffffffffffffffffffffffffffffffffff191690815f1a905350808061288590614825565b915050612707565b50809350505050919050565b8460015f8781526020019081526020015f2060020154146128ef576040517f08c379a00000000000000000000000000000000000000000000000000000000081526004016128e690613e0d565b60405180910390fd5b8360015f8781526020019081526020015f206008015f0190816129129190613cf4565b508260015f8781526020019081526020015f2060080160010190816129379190613cf4565b508160015f8781526020019081526020015f20600801600201908161295c9190613cf4565b508060015f8781526020019081526020015f2060080160030190816129819190613cf4565b505050505050565b6129938282611cf6565b612a09576129a081612a0d565b6129ad835f1c6020612a3a565b6040516020016129be929190614900565b6040516020818303038152906040526040517f08c379a0000000000000000000000000000000000000000000000000000000008152600401612a009190614939565b60405180910390fd5b5050565b6060612a338273ffffffffffffffffffffffffffffffffffffffff16601460ff16612a3a565b9050919050565b60605f6002836002612a4c91906147e4565b612a5691906147b1565b67ffffffffffffffff811115612a6f57612a6e612df6565b5b6040519080825280601f01601f191660200182016040528015612aa15781602001600182028036833780820191505090505b5090507f3000000000000000000000000000000000000000000000000000000000000000815f81518110612ad857612ad7614757565b5b60200101907effffffffffffffffffffffffffffffffffffffffffffffffffffffffffffff191690815f1a9053507f780000000000000000000000000000000000000000000000000000000000000081600181518110612b3b57612b3a614757565b5b60200101907effffffffffffffffffffffffffffffffffffffffffffffffffffffffffffff191690815f1a9053505f6001846002612b7991906147e4565b612b8391906147b1565b90505b6001811115612c22577f3031323334353637383961626364656600000000000000000000000000000000600f861660108110612bc557612bc4614757565b5b1a60f81b828281518110612bdc57612bdb614757565b5b60200101907effffffffffffffffffffffffffffffffffffffffffffffffffffffffffffff191690815f1a905350600485901c945080612c1b90614959565b9050612b86565b505f8414612c65576040517f08c379a0000000000000000000000000000000000000000000000000000000008152600401612c5c906149ca565b60405180910390fd5b8091505092915050565b6040518060800160405280606081526020016060815260200160608152602001606081525090565b60405180610120016040528060608152602001606081526020015f81526020015f81526020015f81526020015f151581526020016060815260200160608152602001612ce1612c6f565b81525090565b5f604051905090565b5f80fd5b5f80fd5b5f7fffffffff0000000000000000000000000000000000000000000000000000000082169050919050565b612d2c81612cf8565b8114612d36575f80fd5b50565b5f81359050612d4781612d23565b92915050565b5f60208284031215612d6257612d61612cf0565b5b5f612d6f84828501612d39565b91505092915050565b5f8115159050919050565b612d8c81612d78565b82525050565b5f602082019050612da55f830184612d83565b92915050565b5f819050919050565b612dbd81612dab565b8114612dc7575f80fd5b50565b5f81359050612dd881612db4565b92915050565b5f80fd5b5f80fd5b5f601f19601f8301169050919050565b7f4e487b71000000000000000000000000000000000000000000000000000000005f52604160045260245ffd5b612e2c82612de6565b810181811067ffffffffffffffff82111715612e4b57612e4a612df6565b5b80604052505050565b5f612e5d612ce7565b9050612e698282612e23565b919050565b5f67ffffffffffffffff821115612e8857612e87612df6565b5b612e9182612de6565b9050602081019050919050565b828183375f83830152505050565b5f612ebe612eb984612e6e565b612e54565b905082815260208101848484011115612eda57612ed9612de2565b5b612ee5848285612e9e565b509392505050565b5f82601f830112612f0157612f00612dde565b5b8135612f11848260208601612eac565b91505092915050565b612f2381612d78565b8114612f2d575f80fd5b50565b5f81359050612f3e81612f1a565b92915050565b5f805f805f8060c08789031215612f5e57612f5d612cf0565b5b5f612f6b89828a01612dca565b965050602087013567ffffffffffffffff811115612f8c57612f8b612cf4565b5b612f9889828a01612eed565b955050604087013567ffffffffffffffff811115612fb957612fb8612cf4565b5b612fc589828a01612eed565b9450506060612fd689828a01612dca565b9350506080612fe789828a01612dca565b92505060a0612ff889828a01612f30565b9150509295509295509295565b5f6020828403121561301a57613019612cf0565b5b5f61302784828501612dca565b91505092915050565b5f81519050919050565b5f82825260208201905092915050565b5f819050602082019050919050565b5f81519050919050565b5f82825260208201905092915050565b5f5b83811015613090578082015181840152602081019050613075565b5f8484015250505050565b5f6130a582613059565b6130af8185613063565b93506130bf818560208601613073565b6130c881612de6565b840191505092915050565b6130dc81612dab565b82525050565b5f604083015f8301518482035f8601526130fc828261309b565b915050602083015161311160208601826130d3565b508091505092915050565b5f61312783836130e2565b905092915050565b5f602082019050919050565b5f61314582613030565b61314f818561303a565b9350836020820285016131618561304a565b805f5b8581101561319c578484038952815161317d858261311c565b94506131888361312f565b925060208a01995050600181019050613164565b50829750879550505050505092915050565b5f608083015f8301518482035f8601526131c8828261309b565b915050602083015184820360208601526131e2828261309b565b915050604083015184820360408601526131fc828261309b565b91505060608301518482036060860152613216828261309b565b9150508091505092915050565b5f6040820190508181035f83015261323b818561313b565b9050818103602083015261324f81846131ae565b90509392505050565b5f819050919050565b61326a81613258565b82525050565b5f6020820190506132835f830184613261565b92915050565b61329281613258565b811461329c575f80fd5b50565b5f813590506132ad81613289565b92915050565b5f602082840312156132c8576132c7612cf0565b5b5f6132d58482850161329f565b91505092915050565b6132e781612d78565b82525050565b5f81519050919050565b5f82825260208201905092915050565b5f819050602082019050919050565b5f606083015f8301518482035f860152613330828261309b565b9150506020830151848203602086015261334a828261309b565b915050604083015161335f60408601826132de565b508091505092915050565b5f6133758383613316565b905092915050565b5f602082019050919050565b5f613393826132ed565b61339d81856132f7565b9350836020820285016133af85613307565b805f5b858110156133ea57848403895281516133cb858261336a565b94506133d68361337d565b925060208a019950506001810190506133b2565b50829750879550505050505092915050565b5f82825260208201905092915050565b5f61341682613030565b61342081856133fc565b9350836020820285016134328561304a565b805f5b8581101561346d578484038952815161344e858261311c565b94506134598361312f565b925060208a01995050600181019050613435565b50829750879550505050505092915050565b5f608083015f8301518482035f860152613499828261309b565b915050602083015184820360208601526134b3828261309b565b915050604083015184820360408601526134cd828261309b565b915050606083015184820360608601526134e7828261309b565b9150508091505092915050565b5f61012083015f8301518482035f86015261350f828261309b565b91505060208301518482036020860152613529828261309b565b915050604083015161353e60408601826130d3565b50606083015161355160608601826130d3565b50608083015161356460808601826130d3565b5060a083015161357760a08601826132de565b5060c083015184820360c086015261358f8282613389565b91505060e083015184820360e08601526135a9828261340c565b9150506101008301518482036101008601526135c5828261347f565b9150508091505092915050565b5f6020820190508181035f8301526135ea81846134f4565b905092915050565b5f73ffffffffffffffffffffffffffffffffffffffff82169050919050565b5f61361b826135f2565b9050919050565b61362b81613611565b8114613635575f80fd5b50565b5f8135905061364681613622565b92915050565b5f806040838503121561366257613661612cf0565b5b5f61366f8582860161329f565b925050602061368085828601613638565b9150509250929050565b5f60ff82169050919050565b61369f8161368a565b81146136a9575f80fd5b50565b5f813590506136ba81613696565b92915050565b5f805f805f805f80610100898b0312156136dd576136dc612cf0565b5b5f6136ea8b828c01612dca565b98505060206136fb8b828c016136ac565b975050604061370c8b828c01613638565b965050606089013567ffffffffffffffff81111561372d5761372c612cf4565b5b6137398b828c01612eed565b955050608089013567ffffffffffffffff81111561375a57613759612cf4565b5b6137668b828c01612eed565b94505060a089013567ffffffffffffffff81111561378757613786612cf4565b5b6137938b828c01612eed565b93505060c089013567ffffffffffffffff8111156137b4576137b3612cf4565b5b6137c08b828c01612eed565b92505060e089013567ffffffffffffffff8111156137e1576137e0612cf4565b5b6137ed8b828c01612eed565b9150509295985092959890939650565b5f805f806080858703121561381557613814612cf0565b5b5f61382287828801612dca565b945050602061383387828801613638565b935050604085013567ffffffffffffffff81111561385457613853612cf4565b5b61386087828801612eed565b925050606085013567ffffffffffffffff81111561388157613880612cf4565b5b61388d87828801612eed565b91505092959194509250565b5f805f80608085870312156138b1576138b0612cf0565b5b5f6138be87828801612dca565b945050602085013567ffffffffffffffff8111156138df576138de612cf4565b5b6138eb87828801612eed565b935050604085013567ffffffffffffffff81111561390c5761390b612cf4565b5b61391887828801612eed565b925050606085013567ffffffffffffffff81111561393957613938612cf4565b5b61394587828801612eed565b91505092959194509250565b5f82825260208201905092915050565b5f61396b82613059565b6139758185613951565b9350613985818560208601613073565b61398e81612de6565b840191505092915050565b6139a281612dab565b82525050565b5f60e0820190508181035f8301526139c0818a613961565b905081810360208301526139d48189613961565b90506139e36040830188613999565b6139f06060830187613999565b6139fd6080830186613999565b613a0a60a0830185612d83565b81810360c0830152613a1c81846131ae565b905098975050505050505050565b7f556e617574686f72697a656421000000000000000000000000000000000000005f82015250565b5f613a5e600d83613951565b9150613a6982613a2a565b602082019050919050565b5f6020820190508181035f830152613a8b81613a52565b9050919050565b7f494d454920616c726561647920657869737473210000000000000000000000005f82015250565b5f613ac6601483613951565b9150613ad182613a92565b602082019050919050565b5f6020820190508181035f830152613af381613aba565b9050919050565b7f4e487b71000000000000000000000000000000000000000000000000000000005f52602260045260245ffd5b5f6002820490506001821680613b3e57607f821691505b602082108103613b5157613b50613afa565b5b50919050565b5f819050815f5260205f209050919050565b5f6020601f8301049050919050565b5f82821b905092915050565b5f60088302613bb37fffffffffffffffffffffffffffffffffffffffffffffffffffffffffffffffff82613b78565b613bbd8683613b78565b95508019841693508086168417925050509392505050565b5f819050919050565b5f613bf8613bf3613bee84612dab565b613bd5565b612dab565b9050919050565b5f819050919050565b613c1183613bde565b613c25613c1d82613bff565b848454613b84565b825550505050565b5f90565b613c39613c2d565b613c44818484613c08565b505050565b5b81811015613c6757613c5c5f82613c31565b600181019050613c4a565b5050565b601f821115613cac57613c7d81613b57565b613c8684613b69565b81016020851015613c95578190505b613ca9613ca185613b69565b830182613c49565b50505b505050565b5f82821c905092915050565b5f613ccc5f1984600802613cb1565b1980831691505092915050565b5f613ce48383613cbd565b9150826002028217905092915050565b613cfd82613059565b67ffffffffffffffff811115613d1657613d15612df6565b5b613d208254613b27565b613d2b828285613c6b565b5f60209050601f831160018114613d5c575f8415613d4a578287015190505b613d548582613cd9565b865550613dbb565b601f198416613d6a86613b57565b5f5b82811015613d9157848901518255600182019150602085019450602081019050613d6c565b86831015613dae5784890151613daa601f891682613cbd565b8355505b6001600288020188555050505b505050505050565b7f494d454920646f6573206e6f74206578697374210000000000000000000000005f82015250565b5f613df7601483613951565b9150613e0282613dc3565b602082019050919050565b5f6020820190508181035f830152613e2481613deb565b9050919050565b7f416363657373436f6e74726f6c3a2063616e206f6e6c792072656e6f756e63655f8201527f20726f6c657320666f722073656c660000000000000000000000000000000000602082015250565b5f613e85602f83613951565b9150613e9082613e2b565b604082019050919050565b5f6020820190508181035f830152613eb281613e79565b9050919050565b5f81905092915050565b7f416374696f6e3a20536f6c6420746f204469737472696275746f7200000000005f82015250565b5f613ef7601b83613eb9565b9150613f0282613ec3565b601b82019050919050565b7f0a456e7469747920416464726573733a200000000000000000000000000000005f82015250565b5f613f41601183613eb9565b9150613f4c82613f0d565b601182019050919050565b5f613f6182613059565b613f6b8185613eb9565b9350613f7b818560208601613073565b80840191505092915050565b7f0a536d61727470686f6e652044657461696c733a2000000000000000000000005f82015250565b5f613fbb601583613eb9565b9150613fc682613f87565b601582019050919050565b7f0a4164646974696f6e616c20496e666f3a2000000000000000000000000000005f82015250565b5f614005601283613eb9565b915061401082613fd1565b601282019050919050565b5f61402582613eeb565b915061403082613f35565b915061403c8286613f57565b915061404782613faf565b91506140538285613f57565b915061405e82613ff9565b915061406a8284613f57565b9150819050949350505050565b7f416374696f6e3a20536f6c6420746f2052657461696c657200000000000000005f82015250565b5f6140ab601883613eb9565b91506140b682614077565b601882019050919050565b5f6140cb8261409f565b91506140d682613f35565b91506140e28286613f57565b91506140ed82613faf565b91506140f98285613f57565b915061410482613ff9565b91506141108284613f57565b9150819050949350505050565b7f416374696f6e3a20536f6c6420746f20436f6e73756d657200000000000000005f82015250565b5f614151601883613eb9565b915061415c8261411d565b601882019050919050565b5f61417182614145565b915061417c82613f35565b91506141888286613f57565b915061419382613faf565b915061419f8285613f57565b91506141aa82613ff9565b91506141b68284613f57565b9150819050949350505050565b7f416374696f6e3a204769766520746f2052656379636c657200000000000000005f82015250565b5f6141f7601883613eb9565b9150614202826141c3565b601882019050919050565b5f614217826141eb565b915061422282613f35565b915061422e8286613f57565b915061423982613faf565b91506142458285613f57565b915061425082613ff9565b915061425c8284613f57565b9150819050949350505050565b7f496e76616c6964207472616e73616374696f6e207479706500000000000000005f82015250565b5f61429d601883613951565b91506142a882614269565b602082019050919050565b5f6020820190508181035f8301526142ca81614291565b9050919050565b7f416374696f6e3a2052657475726e656420746f204d616e7566616374757265725f82015250565b5f614305602083613eb9565b9150614310826142d1565b602082019050919050565b5f614325826142f9565b915061433082613f35565b915061433c8286613f57565b915061434782613faf565b91506143538285613f57565b915061435e82613ff9565b915061436a8284613f57565b9150819050949350505050565b7f416374696f6e3a20536f6c6420746f20526566757262697368657200000000005f82015250565b5f6143ab601b83613eb9565b91506143b682614377565b601b82019050919050565b5f6143cb8261439f565b91506143d682613f35565b91506143e28286613f57565b91506143ed82613faf565b91506143f98285613f57565b915061440482613ff9565b91506144108284613f57565b9150819050949350505050565b7f416374696f6e3a20476976656e20746f2052656379636c6572000000000000005f82015250565b5f614451601983613eb9565b915061445c8261441d565b601982019050919050565b5f61447182614445565b915061447c82613f35565b91506144888286613f57565b915061449382613faf565b915061449f8285613f57565b91506144aa82613ff9565b91506144b68284613f57565b9150819050949350505050565b7f496e76616c696420416374696f6e2054797065210000000000000000000000005f82015250565b5f6144f7601483613951565b9150614502826144c3565b602082019050919050565b5f6020820190508181035f830152614524816144eb565b9050919050565b7f5472616e73616374696f6e20547970653a20536f6c6420746f20436f6e73756d5f8201527f6572000000000000000000000000000000000000000000000000000000000000602082015250565b5f614585602283613eb9565b91506145908261452b565b602282019050919050565b7f0a436f6e73756d657220416464726573733a20000000000000000000000000005f82015250565b5f6145cf601383613eb9565b91506145da8261459b565b601382019050919050565b5f6145ef82614579565b91506145fa826145c3565b91506146068286613f57565b915061461182613faf565b915061461d8285613f57565b915061462882613ff9565b91506146348284613f57565b9150819050949350505050565b7f5472616e73616374696f6e20547970653a20536f6c6420746f2052657461696c5f8201527f6572000000000000000000000000000000000000000000000000000000000000602082015250565b5f61469b602283613eb9565b91506146a682614641565b602282019050919050565b7f0a52657461696c657220416464726573733a20000000000000000000000000005f82015250565b5f6146e5601383613eb9565b91506146f0826146b1565b601382019050919050565b5f6147058261468f565b9150614710826146d9565b915061471c8286613f57565b915061472782613faf565b91506147338285613f57565b915061473e82613ff9565b915061474a8284613f57565b9150819050949350505050565b7f4e487b71000000000000000000000000000000000000000000000000000000005f52603260045260245ffd5b7f4e487b71000000000000000000000000000000000000000000000000000000005f52601160045260245ffd5b5f6147bb82612dab565b91506147c683612dab565b92508282019050808211156147de576147dd614784565b5b92915050565b5f6147ee82612dab565b91506147f983612dab565b925082820261480781612dab565b9150828204841483151761481e5761481d614784565b5b5092915050565b5f61482f82612dab565b91507fffffffffffffffffffffffffffffffffffffffffffffffffffffffffffffffff820361486157614860614784565b5b600182019050919050565b7f416363657373436f6e74726f6c3a206163636f756e74200000000000000000005f82015250565b5f6148a0601783613eb9565b91506148ab8261486c565b601782019050919050565b7f206973206d697373696e6720726f6c65200000000000000000000000000000005f82015250565b5f6148ea601183613eb9565b91506148f5826148b6565b601182019050919050565b5f61490a82614894565b91506149168285613f57565b9150614921826148de565b915061492d8284613f57565b91508190509392505050565b5f6020820190508181035f8301526149518184613961565b905092915050565b5f61496382612dab565b91505f820361497557614974614784565b5b600182039050919050565b7f537472696e67733a20686578206c656e67746820696e73756666696369656e745f82015250565b5f6149b4602083613951565b91506149bf82614980565b602082019050919050565b5f6020820190508181035f8301526149e1816149a8565b905091905056fea2646970667358221220669c69be2f76e29a5815b23c2c2e42b32088c04bda676e9a637e2467e290a7c564736f6c63430008150033",
  "immutableReferences": {},
  "source": "// SPDX-License-Identifier: MIT\r\npragma solidity ^0.8.15;\r\n\r\nimport \"@openzeppelin/contracts/access/AccessControl.sol\";\r\n\r\ncontract SmartphoneEWasteTracking is AccessControl {\r\n\r\n    // Define roles\r\n    bytes32 public constant MANUFACTURER_ROLE = keccak256(\"MANUFACTURER_ROLE\");\r\n    bytes32 public constant DISTRIBUTOR_ROLE = keccak256(\"DISTRIBUTOR_ROLE\");\r\n    bytes32 public constant RETAILER_ROLE = keccak256(\"RETAILER_ROLE\");\r\n    bytes32 public constant CONSUMER_ROLE = keccak256(\"CONSUMER_ROLE\");\r\n    bytes32 public constant REFURBISHER_ROLE = keccak256(\"REFURBISHER_ROLE\");\r\n    bytes32 public constant RECYCLER_ROLE = keccak256(\"RECYCLER_ROLE\");\r\n    bytes32 public constant ENVIRONMENT_ROLE = keccak256(\"ENVIRONMENT_ROLE\");\r\n    bytes32 public constant GOVERNMENT_ROLE = keccak256(\"GOVERNMENT_ROLE\");\r\n\r\n    struct Component {\r\n        string componentName;\r\n        string material;\r\n        bool isHazardous;\r\n    }\r\n\r\n    struct LifecycleEvent {\r\n        string eventDescription;\r\n        uint256 timestamp;\r\n    }\r\n\r\n    struct DisposalEvent {\r\n        string disposalMethod;\r\n        string disposalDate;\r\n        string location;\r\n        string disposedBy;\r\n    }\r\n\r\n    struct EWastePassport {\r\n        string smartphoneModel;\r\n        string manufacturer;\r\n        uint256 imeiNumber;\r\n        uint256 manufactureDate;\r\n        uint256 expectedLifecycle;\r\n        bool isBatteryReplaceable;\r\n        Component[] components;\r\n        LifecycleEvent[] lifecycleEvents;\r\n        DisposalEvent disposalEvent;\r\n    }\r\n\r\n    mapping(uint256 => EWastePassport) public passports;\r\n\r\n    constructor() public {\r\n        _setupRole(AccessControl.DEFAULT_ADMIN_ROLE, msg.sender);  // Set deployer as the default admin\r\n        _setupRole(MANUFACTURER_ROLE, msg.sender);\r\n        _setupRole(DISTRIBUTOR_ROLE, msg.sender);\r\n        _setupRole(RETAILER_ROLE, msg.sender);\r\n        _setupRole( CONSUMER_ROLE, msg.sender);\r\n        _setupRole( REFURBISHER_ROLE, msg.sender);\r\n        _setupRole( RECYCLER_ROLE, msg.sender);\r\n        _setupRole( ENVIRONMENT_ROLE, msg.sender);\r\n        _setupRole( GOVERNMENT_ROLE, msg.sender);\r\n\r\n    }\r\n\r\n    function createNewPassport(\r\n        uint256 _imeiNumber,\r\n        string memory _smartphoneModel,\r\n        string memory _manufacturer,\r\n        uint256 _expectedLifecycle,\r\n        uint256 _manufactureDate,\r\n        bool _isBatteryReplaceable\r\n    ) public {\r\n        require(hasRole(MANUFACTURER_ROLE, msg.sender), \"Unauthorized!\");\r\n        require(passports[_imeiNumber].imeiNumber != _imeiNumber, \"IMEI already exists!\");\r\n\r\n        EWastePassport storage newPassport = passports[_imeiNumber];\r\n        \r\n        newPassport.smartphoneModel = _smartphoneModel;\r\n        newPassport.manufacturer = _manufacturer;\r\n        newPassport.imeiNumber = _imeiNumber;\r\n        newPassport.manufactureDate = _manufactureDate;\r\n        newPassport.expectedLifecycle = _expectedLifecycle;\r\n        newPassport.isBatteryReplaceable = _isBatteryReplaceable;\r\n        newPassport.disposalEvent = DisposalEvent(\"\", \"\", \"\", \"\");\r\n    }\r\n\r\n    function manufacturerTransaction(\r\n        uint256 _imeiNumber,\r\n        uint8 actionType,\r\n        address entityAddress,        \r\n        string memory smartphoneDetails, \r\n        string memory additionalInfo,  \r\n        string memory disposalMethod,\r\n        string memory disposalDate,\r\n        string memory location\r\n    ) public {\r\n        require(hasRole(MANUFACTURER_ROLE, msg.sender), \"Unauthorized!\");\r\n        require(passports[_imeiNumber].imeiNumber == _imeiNumber, \"IMEI does not exist!\");\r\n\r\n        string memory eventDescription;\r\n\r\n        if (actionType == 1) {\r\n            eventDescription = string(abi.encodePacked(\r\n                \"Action: Sold to Distributor\",\r\n                \"\\nEntity Address: \", addressToString(entityAddress),\r\n                \"\\nSmartphone Details: \", smartphoneDetails,\r\n                \"\\nAdditional Info: \", additionalInfo\r\n            ));\r\n        } else if (actionType == 2) {\r\n            eventDescription = string(abi.encodePacked(\r\n                \"Action: Sold to Retailer\",\r\n                \"\\nEntity Address: \", addressToString(entityAddress),\r\n                \"\\nSmartphone Details: \", smartphoneDetails,\r\n                \"\\nAdditional Info: \", additionalInfo\r\n            ));\r\n        } else if (actionType == 3) {\r\n            eventDescription = string(abi.encodePacked(\r\n                \"Action: Sold to Consumer\",\r\n                \"\\nEntity Address: \", addressToString(entityAddress),\r\n                \"\\nSmartphone Details: \", smartphoneDetails,\r\n                \"\\nAdditional Info: \", additionalInfo\r\n            ));\r\n        } else if (actionType == 4) {\r\n            eventDescription = string(abi.encodePacked(\r\n                \"Action: Give to Recycler\",\r\n                \"\\nEntity Address: \", addressToString(entityAddress),\r\n                \"\\nSmartphone Details: \", smartphoneDetails,\r\n                \"\\nAdditional Info: \", additionalInfo\r\n            ));\r\n        } else if (actionType == 5) {\r\n            // Calling the disposeDevice method when actionType is 5\r\n            disposeDevice(_imeiNumber, disposalMethod, disposalDate, location, addressToString(msg.sender));\r\n        } else {\r\n            revert(\"Invalid transaction type\");\r\n        }\r\n\r\n        LifecycleEvent memory newEvent = LifecycleEvent({\r\n            eventDescription: eventDescription,\r\n            timestamp: block.timestamp\r\n        });\r\n\r\n        passports[_imeiNumber].lifecycleEvents.push(newEvent);\r\n    }\r\n\r\n    // Implementing the disposeDevice method\r\n    function disposeDevice(\r\n        uint256 _imeiNumber,\r\n        string memory _disposalMethod,\r\n        string memory _disposalDate,\r\n        string memory _location,\r\n        string memory _disposedBy\r\n    ) internal {  // Set to internal as it should only be called from within this contract\r\n        require(passports[_imeiNumber].imeiNumber == _imeiNumber, \"IMEI does not exist!\");\r\n        passports[_imeiNumber].disposalEvent.disposalMethod = _disposalMethod;\r\n        passports[_imeiNumber].disposalEvent.disposalDate = _disposalDate;\r\n        passports[_imeiNumber].disposalEvent.location = _location;\r\n        passports[_imeiNumber].disposalEvent.disposedBy = _disposedBy;\r\n    }\r\n\r\n    // Helper function to convert address to string (useful for logging in eventDescription)\r\n    function addressToString(address _address) private pure returns(string memory) {\r\n        bytes32 value = bytes32(uint256(uint160(_address)));\r\n        bytes memory alphabet = \"0123456789abcdef\";\r\n        \r\n        bytes memory str = new bytes(42);\r\n        str[0] = '0';\r\n        str[1] = 'x';\r\n        for (uint256 i = 0; i < 20; i++) {\r\n            str[2 + i * 2] = alphabet[uint8(value[i + 12] >> 4)];\r\n            str[3 + i * 2] = alphabet[uint8(value[i + 12] & 0x0f)];\r\n        }\r\n        return string(str);\r\n    }\r\n\r\n\r\n    function consumerTransaction(\r\n        uint256 _imeiNumber,\r\n        uint8 actionType, // 1 for Return, 2 for Sell to Refurbisher, 3 for Give to Recycler, 4 for Dispose\r\n        address entityAddress,  // Address of manufacturer, refurbisher, or recycler.\r\n        string memory additionalInfo,  // Additional info, e.g., reasons for return, sale details, etc.\r\n        string memory smartphoneDetails,\r\n        string memory disposalMethod,\r\n        string memory disposalDate,\r\n        string memory location \r\n    ) public {\r\n        require(hasRole(CONSUMER_ROLE, msg.sender), \"Unauthorized!\");\r\n        require(passports[_imeiNumber].imeiNumber == _imeiNumber, \"IMEI does not exist!\");\r\n\r\n        string memory eventDescription;\r\n        \r\n        if (actionType == 1) {\r\n            eventDescription = string(abi.encodePacked(\r\n                \"Action: Returned to Manufacturer\",\r\n                \"\\nEntity Address: \", addressToString(entityAddress),\r\n                \"\\nSmartphone Details: \", smartphoneDetails,\r\n                \"\\nAdditional Info: \", additionalInfo\r\n            ));\r\n        } else if (actionType == 2) {\r\n            eventDescription = string(abi.encodePacked(\r\n                \"Action: Sold to Refurbisher\",\r\n                \"\\nEntity Address: \", addressToString(entityAddress),\r\n                \"\\nSmartphone Details: \", smartphoneDetails,\r\n                \"\\nAdditional Info: \", additionalInfo\r\n            ));\r\n        } else if (actionType == 3) {\r\n            eventDescription = string(abi.encodePacked(\r\n                \"Action: Given to Recycler\",\r\n                \"\\nEntity Address: \", addressToString(entityAddress),\r\n                \"\\nSmartphone Details: \", smartphoneDetails,\r\n                \"\\nAdditional Info: \", additionalInfo\r\n            ));\r\n        } else if (actionType == 4) {\r\n            disposeDevice(_imeiNumber, disposalMethod, disposalDate, location, addressToString(msg.sender));\r\n        } else {\r\n            revert(\"Invalid Action Type!\");\r\n        }\r\n\r\n        LifecycleEvent memory newEvent = LifecycleEvent({\r\n            eventDescription: eventDescription,\r\n            timestamp: block.timestamp\r\n        });\r\n        passports[_imeiNumber].lifecycleEvents.push(newEvent);\r\n    }\r\n\r\n\r\n    function refurbisherTransaction(\r\n        uint256 _imeiNumber,\r\n        uint8 actionType, // 1 for Sell to Consumer, 2 for Sell to Retailer, 3 for Give to Recycle, 4 for Dispose\r\n        address entityAddress,  // Address of consumer, retailer, or recycler.\r\n        string memory additionalInfo,  // Additional info, e.g., sale details, reasons, etc.\r\n        string memory smartphoneDetails,\r\n        string memory disposalMethod,\r\n        string memory disposalDate,\r\n        string memory location\r\n    ) public {\r\n        require(hasRole(REFURBISHER_ROLE, msg.sender), \"Unauthorized!\");\r\n        require(passports[_imeiNumber].imeiNumber == _imeiNumber, \"IMEI does not exist!\");\r\n\r\n        string memory eventDescription;\r\n\r\n        if (actionType == 1) {\r\n            eventDescription = string(abi.encodePacked(\r\n                \"Action: Sold to Consumer\",\r\n                \"\\nEntity Address: \", addressToString(entityAddress),\r\n                \"\\nSmartphone Details: \", smartphoneDetails,\r\n                \"\\nAdditional Info: \", additionalInfo\r\n            ));\r\n        } else if (actionType == 2) {\r\n            eventDescription = string(abi.encodePacked(\r\n                \"Action: Sold to Retailer\",\r\n                \"\\nEntity Address: \", addressToString(entityAddress),\r\n                \"\\nSmartphone Details: \", smartphoneDetails,\r\n                \"\\nAdditional Info: \", additionalInfo\r\n            ));\r\n        } else if (actionType == 3) {\r\n            eventDescription = string(abi.encodePacked(\r\n                \"Action: Given to Recycler\",\r\n                \"\\nEntity Address: \", addressToString(entityAddress),\r\n                \"\\nSmartphone Details: \", smartphoneDetails,\r\n                \"\\nAdditional Info: \", additionalInfo\r\n            ));\r\n        } else if (actionType == 4) {\r\n\r\n            disposeDevice(_imeiNumber, disposalMethod, disposalDate, location, addressToString(msg.sender));\r\n        } else {\r\n            revert(\"Invalid Action Type!\");\r\n        }\r\n\r\n        LifecycleEvent memory newEvent = LifecycleEvent({\r\n            eventDescription: eventDescription,\r\n            timestamp: block.timestamp\r\n        });\r\n        passports[_imeiNumber].lifecycleEvents.push(newEvent);\r\n    }\r\n\r\n\r\n    function recyclerTransaction(uint256 _imeiNumber, string memory _disposalMethod, string memory _disposalDate, string memory _location) public {\r\n        require(hasRole(RECYCLER_ROLE, msg.sender), \"Unauthorized!\");\r\n        DisposalEvent memory newDisposal = DisposalEvent({\r\n            disposalMethod: _disposalMethod,\r\n            disposalDate: _disposalDate,\r\n            location: _location,\r\n            disposedBy: addressToString(msg.sender)\r\n        });\r\n        passports[_imeiNumber].disposalEvent = newDisposal;\r\n    }\r\n\r\n\r\n    function distributorTransaction(\r\n        uint256 _imeiNumber,\r\n        address retailerAddress,  // Address of the retailer the distributor is selling to\r\n        string memory smartphoneDetails,  // Details about the smartphone, like color, variant, etc.\r\n        string memory additionalInfo  // Additional info for transaction, such as transaction ID or batch number\r\n    ) public {\r\n        require(hasRole(DISTRIBUTOR_ROLE, msg.sender), \"Unauthorized!\");\r\n        require(passports[_imeiNumber].imeiNumber == _imeiNumber, \"IMEI does not exist!\");\r\n\r\n        string memory eventDescription = string(abi.encodePacked(\r\n            \"Transaction Type: Sold to Retailer\",\r\n            \"\\nRetailer Address: \", addressToString(retailerAddress),\r\n            \"\\nSmartphone Details: \", smartphoneDetails,\r\n            \"\\nAdditional Info: \", additionalInfo\r\n        ));\r\n\r\n        LifecycleEvent memory newEvent = LifecycleEvent({\r\n            eventDescription: eventDescription,\r\n            timestamp: block.timestamp\r\n        });\r\n\r\n        passports[_imeiNumber].lifecycleEvents.push(newEvent);\r\n    }\r\n\r\n    function retailerTransaction(\r\n        uint256 _imeiNumber,\r\n        address consumerAddress,  // Address of the consumer the retailer is selling to\r\n        string memory smartphoneDetails,  // Details about the smartphone, like color, variant, etc.\r\n        string memory additionalInfo  // Additional info for transaction, such as transaction ID or invoice number\r\n    ) public {\r\n        require(hasRole(RETAILER_ROLE, msg.sender), \"Unauthorized!\");\r\n        require(passports[_imeiNumber].imeiNumber == _imeiNumber, \"IMEI does not exist!\");\r\n\r\n        string memory eventDescription = string(abi.encodePacked(\r\n            \"Transaction Type: Sold to Consumer\",\r\n            \"\\nConsumer Address: \", addressToString(consumerAddress),\r\n            \"\\nSmartphone Details: \", smartphoneDetails,\r\n            \"\\nAdditional Info: \", additionalInfo\r\n        ));\r\n\r\n        LifecycleEvent memory newEvent = LifecycleEvent({\r\n            eventDescription: eventDescription,\r\n            timestamp: block.timestamp\r\n        });\r\n\r\n        passports[_imeiNumber].lifecycleEvents.push(newEvent);\r\n    }\r\n\r\n\r\n    function governmentTransaction(uint256 _imeiNumber) public view returns (EWastePassport memory) {\r\n        require(hasRole(GOVERNMENT_ROLE, msg.sender), \"Unauthorized!\");\r\n        return passports[_imeiNumber];\r\n    }\r\n\r\n    function environmentTransaction(uint256 _imeiNumber) public view returns (LifecycleEvent[] memory, DisposalEvent memory) {\r\n        require(hasRole(ENVIRONMENT_ROLE, msg.sender), \"Unauthorized!\");\r\n        require(passports[_imeiNumber].imeiNumber == _imeiNumber, \"IMEI does not exist!\");\r\n\r\n        return (passports[_imeiNumber].lifecycleEvents, passports[_imeiNumber].disposalEvent);\r\n    }\r\n\r\n}",
  "sourcePath": "C:\\Users\\jaina\\Desktop\\Sustainability Challenge\\e-waste-tracking\\contracts\\EWasteTracking.sol",
  "compiler": {
    "name": "solc",
    "version": "0.8.21+commit.d9974bed.Emscripten.clang"
  },
  "schemaVersion": "3.4.16",
  "updatedAt": "2023-10-21T01:00:30.549Z",
  "devdoc": {
    "events": {
      "RoleAdminChanged(bytes32,bytes32,bytes32)": {
        "details": "Emitted when `newAdminRole` is set as ``role``'s admin role, replacing `previousAdminRole` `DEFAULT_ADMIN_ROLE` is the starting admin for all roles, despite {RoleAdminChanged} not being emitted signaling this. _Available since v3.1._"
      },
      "RoleGranted(bytes32,address,address)": {
        "details": "Emitted when `account` is granted `role`. `sender` is the account that originated the contract call, an admin role bearer except when using {AccessControl-_setupRole}."
      },
      "RoleRevoked(bytes32,address,address)": {
        "details": "Emitted when `account` is revoked `role`. `sender` is the account that originated the contract call:   - if using `revokeRole`, it is the admin role bearer   - if using `renounceRole`, it is the role bearer (i.e. `account`)"
      }
    },
    "kind": "dev",
    "methods": {
      "getRoleAdmin(bytes32)": {
        "details": "Returns the admin role that controls `role`. See {grantRole} and {revokeRole}. To change a role's admin, use {_setRoleAdmin}."
      },
      "grantRole(bytes32,address)": {
        "details": "Grants `role` to `account`. If `account` had not been already granted `role`, emits a {RoleGranted} event. Requirements: - the caller must have ``role``'s admin role. May emit a {RoleGranted} event."
      },
      "hasRole(bytes32,address)": {
        "details": "Returns `true` if `account` has been granted `role`."
      },
      "renounceRole(bytes32,address)": {
        "details": "Revokes `role` from the calling account. Roles are often managed via {grantRole} and {revokeRole}: this function's purpose is to provide a mechanism for accounts to lose their privileges if they are compromised (such as when a trusted device is misplaced). If the calling account had been revoked `role`, emits a {RoleRevoked} event. Requirements: - the caller must be `account`. May emit a {RoleRevoked} event."
      },
      "revokeRole(bytes32,address)": {
        "details": "Revokes `role` from `account`. If `account` had been granted `role`, emits a {RoleRevoked} event. Requirements: - the caller must have ``role``'s admin role. May emit a {RoleRevoked} event."
      },
      "supportsInterface(bytes4)": {
        "details": "See {IERC165-supportsInterface}."
      }
    },
    "version": 1
  },
  "userdoc": {
    "kind": "user",
    "methods": {},
    "version": 1
  }
}